{
  "_format": "hh-sol-artifact-1",
  "contractName": "AquaHopeGovernance",
  "sourceName": "contracts/AquaHopeGovernance.sol",
  "abi": [
    {
      "inputs": [
        {
          "internalType": "address",
          "name": "_aitToken",
          "type": "address"
        }
      ],
      "stateMutability": "nonpayable",
      "type": "constructor"
    },
    {
      "anonymous": false,
      "inputs": [
        {
          "indexed": true,
          "internalType": "address",
          "name": "previousOwner",
          "type": "address"
        },
        {
          "indexed": true,
          "internalType": "address",
          "name": "newOwner",
          "type": "address"
        }
      ],
      "name": "OwnershipTransferred",
      "type": "event"
    },
    {
      "anonymous": false,
      "inputs": [
        {
          "indexed": true,
          "internalType": "uint256",
          "name": "proposalId",
          "type": "uint256"
        }
      ],
      "name": "ProposalCancelled",
      "type": "event"
    },
    {
      "anonymous": false,
      "inputs": [
        {
          "indexed": true,
          "internalType": "uint256",
          "name": "proposalId",
          "type": "uint256"
        },
        {
          "indexed": true,
          "internalType": "address",
          "name": "proposer",
          "type": "address"
        },
        {
          "indexed": false,
          "internalType": "string",
          "name": "title",
          "type": "string"
        },
        {
          "indexed": false,
          "internalType": "string",
          "name": "location",
          "type": "string"
        },
        {
          "indexed": false,
          "internalType": "uint256",
          "name": "budget",
          "type": "uint256"
        }
      ],
      "name": "ProposalCreated",
      "type": "event"
    },
    {
      "anonymous": false,
      "inputs": [
        {
          "indexed": true,
          "internalType": "uint256",
          "name": "proposalId",
          "type": "uint256"
        }
      ],
      "name": "ProposalExecuted",
      "type": "event"
    },
    {
      "anonymous": false,
      "inputs": [
        {
          "indexed": true,
          "internalType": "uint256",
          "name": "proposalId",
          "type": "uint256"
        },
        {
          "indexed": true,
          "internalType": "address",
          "name": "voter",
          "type": "address"
        },
        {
          "indexed": false,
          "internalType": "bool",
          "name": "support",
          "type": "bool"
        },
        {
          "indexed": false,
          "internalType": "uint256",
          "name": "votes",
          "type": "uint256"
        }
      ],
      "name": "VoteCast",
      "type": "event"
    },
    {
      "inputs": [],
      "name": "EXECUTION_DELAY",
      "outputs": [
        {
          "internalType": "uint256",
          "name": "",
          "type": "uint256"
        }
      ],
      "stateMutability": "view",
      "type": "function"
    },
    {
      "inputs": [],
      "name": "VOTING_PERIOD",
      "outputs": [
        {
          "internalType": "uint256",
          "name": "",
          "type": "uint256"
        }
      ],
      "stateMutability": "view",
      "type": "function"
    },
    {
      "inputs": [],
      "name": "aitToken",
      "outputs": [
        {
          "internalType": "address",
          "name": "",
          "type": "address"
        }
      ],
      "stateMutability": "view",
      "type": "function"
    },
    {
      "inputs": [
        {
          "internalType": "uint256",
          "name": "proposalId",
          "type": "uint256"
        }
      ],
      "name": "cancelProposal",
      "outputs": [],
      "stateMutability": "nonpayable",
      "type": "function"
    },
    {
      "inputs": [
        {
          "internalType": "string",
          "name": "title",
          "type": "string"
        },
        {
          "internalType": "string",
          "name": "description",
          "type": "string"
        },
        {
          "internalType": "string",
          "name": "location",
          "type": "string"
        },
        {
          "internalType": "uint256",
          "name": "budget",
          "type": "uint256"
        }
      ],
      "name": "createProposal",
      "outputs": [
        {
          "internalType": "uint256",
          "name": "",
          "type": "uint256"
        }
      ],
      "stateMutability": "nonpayable",
      "type": "function"
    },
    {
      "inputs": [
        {
          "internalType": "uint256",
          "name": "proposalId",
          "type": "uint256"
        }
      ],
      "name": "executeProposal",
      "outputs": [],
      "stateMutability": "nonpayable",
      "type": "function"
    },
    {
      "inputs": [
        {
          "internalType": "uint256",
          "name": "proposalId",
          "type": "uint256"
        }
      ],
      "name": "getProposal",
      "outputs": [
        {
          "internalType": "uint256",
          "name": "id",
          "type": "uint256"
        },
        {
          "internalType": "string",
          "name": "title",
          "type": "string"
        },
        {
          "internalType": "string",
          "name": "description",
          "type": "string"
        },
        {
          "internalType": "string",
          "name": "location",
          "type": "string"
        },
        {
          "internalType": "uint256",
          "name": "budget",
          "type": "uint256"
        },
        {
          "internalType": "address",
          "name": "proposer",
          "type": "address"
        },
        {
          "internalType": "uint256",
          "name": "startTime",
          "type": "uint256"
        },
        {
          "internalType": "uint256",
          "name": "endTime",
          "type": "uint256"
        },
        {
          "internalType": "uint256",
          "name": "forVotes",
          "type": "uint256"
        },
        {
          "internalType": "uint256",
          "name": "againstVotes",
          "type": "uint256"
        },
        {
          "internalType": "bool",
          "name": "executed",
          "type": "bool"
        },
        {
          "internalType": "bool",
          "name": "cancelled",
          "type": "bool"
        }
      ],
      "stateMutability": "view",
      "type": "function"
    },
    {
      "inputs": [
        {
          "internalType": "uint256",
          "name": "proposalId",
          "type": "uint256"
        }
      ],
      "name": "getProposalState",
      "outputs": [
        {
          "internalType": "string",
          "name": "",
          "type": "string"
        }
      ],
      "stateMutability": "view",
      "type": "function"
    },
    {
      "inputs": [
        {
          "internalType": "uint256",
          "name": "proposalId",
          "type": "uint256"
        },
        {
          "internalType": "address",
          "name": "voter",
          "type": "address"
        }
      ],
      "name": "getVotes",
      "outputs": [
        {
          "internalType": "uint256",
          "name": "",
          "type": "uint256"
        }
      ],
      "stateMutability": "view",
      "type": "function"
    },
    {
      "inputs": [
        {
          "internalType": "uint256",
          "name": "proposalId",
          "type": "uint256"
        },
        {
          "internalType": "address",
          "name": "voter",
          "type": "address"
        }
      ],
      "name": "hasVoted",
      "outputs": [
        {
          "internalType": "bool",
          "name": "",
          "type": "bool"
        }
      ],
      "stateMutability": "view",
      "type": "function"
    },
    {
      "inputs": [],
      "name": "owner",
      "outputs": [
        {
          "internalType": "address",
          "name": "",
          "type": "address"
        }
      ],
      "stateMutability": "view",
      "type": "function"
    },
    {
      "inputs": [],
      "name": "proposalCount",
      "outputs": [
        {
          "internalType": "uint256",
          "name": "",
          "type": "uint256"
        }
      ],
      "stateMutability": "view",
      "type": "function"
    },
    {
      "inputs": [
        {
          "internalType": "uint256",
          "name": "",
          "type": "uint256"
        }
      ],
      "name": "proposals",
      "outputs": [
        {
          "internalType": "uint256",
          "name": "id",
          "type": "uint256"
        },
        {
          "internalType": "string",
          "name": "title",
          "type": "string"
        },
        {
          "internalType": "string",
          "name": "description",
          "type": "string"
        },
        {
          "internalType": "string",
          "name": "location",
          "type": "string"
        },
        {
          "internalType": "uint256",
          "name": "budget",
          "type": "uint256"
        },
        {
          "internalType": "address",
          "name": "proposer",
          "type": "address"
        },
        {
          "internalType": "uint256",
          "name": "startTime",
          "type": "uint256"
        },
        {
          "internalType": "uint256",
          "name": "endTime",
          "type": "uint256"
        },
        {
          "internalType": "uint256",
          "name": "forVotes",
          "type": "uint256"
        },
        {
          "internalType": "uint256",
          "name": "againstVotes",
          "type": "uint256"
        },
        {
          "internalType": "bool",
          "name": "executed",
          "type": "bool"
        },
        {
          "internalType": "bool",
          "name": "cancelled",
          "type": "bool"
        }
      ],
      "stateMutability": "view",
      "type": "function"
    },
    {
      "inputs": [],
      "name": "renounceOwnership",
      "outputs": [],
      "stateMutability": "nonpayable",
      "type": "function"
    },
    {
      "inputs": [
        {
          "internalType": "address",
          "name": "_aitToken",
          "type": "address"
        }
      ],
      "name": "setAITToken",
      "outputs": [],
      "stateMutability": "nonpayable",
      "type": "function"
    },
    {
      "inputs": [
        {
          "internalType": "address",
          "name": "newOwner",
          "type": "address"
        }
      ],
      "name": "transferOwnership",
      "outputs": [],
      "stateMutability": "nonpayable",
      "type": "function"
    },
    {
      "inputs": [
        {
          "internalType": "uint256",
          "name": "proposalId",
          "type": "uint256"
        },
        {
          "internalType": "bool",
          "name": "support",
          "type": "bool"
        }
      ],
      "name": "vote",
      "outputs": [],
      "stateMutability": "nonpayable",
      "type": "function"
    }
  ],
  "bytecode": "0x608060405234801561001057600080fd5b5060405162001d1038038062001d10833981016040819052610031916100b3565b61003a33610063565b60018055600480546001600160a01b0319166001600160a01b03929092169190911790556100e3565b600080546001600160a01b038381166001600160a01b0319831681178455604051919092169283917f8be0079c531659141344cd1fd0a4f28419497f9722a3daafe3b4186f6b6457e09190a35050565b6000602082840312156100c557600080fd5b81516001600160a01b03811681146100dc57600080fd5b9392505050565b611c1d80620000f36000396000f3fe608060405234801561001057600080fd5b506004361061010b5760003560e01c80638da5cb5b116100a2578063c9d27afe11610071578063c9d27afe14610237578063da35c6641461024a578063e0a8f6f514610253578063e1859d7314610266578063f2fde38b1461027957600080fd5b80638da5cb5b146101d55780639080936f146101fa578063b1610d7e1461021a578063c7f758a81461022457600080fd5b806343859632116100de57806343859632146101845780634c15676b146101a757806368197360146101ba578063715018a6146101cd57600080fd5b8063013cf08b146101105780630d61b5191461014457806321cdb61b1461015957806337f135d71461016c575b600080fd5b61012361011e36600461169d565b61028c565b60405161013b9c9b9a99989796959493929190611706565b60405180910390f35b61015761015236600461169d565b61048f565b005b6101576101673660046117be565b610660565b6101766201518081565b60405190815260200161013b565b6101976101923660046117e0565b6106e0565b604051901515815260200161013b565b6101766101b53660046118af565b610734565b6101766101c83660046117e0565b610ad7565b610157610b27565b6000546001600160a01b03165b6040516001600160a01b03909116815260200161013b565b61020d61020836600461169d565b610b3b565b60405161013b919061193f565b61017662093a8081565b61012361023236600461169d565b610c69565b610157610245366004611952565b610ed5565b61017660035481565b61015761026136600461169d565b6113fe565b6004546101e2906001600160a01b031681565b6101576102873660046117be565b611524565b600260205260009081526040902080546001820180549192916102ae90611987565b80601f01602080910402602001604051908101604052809291908181526020018280546102da90611987565b80156103275780601f106102fc57610100808354040283529160200191610327565b820191906000526020600020905b81548152906001019060200180831161030a57829003601f168201915b50505050509080600201805461033c90611987565b80601f016020809104026020016040519081016040528092919081815260200182805461036890611987565b80156103b55780601f1061038a576101008083540402835291602001916103b5565b820191906000526020600020905b81548152906001019060200180831161039857829003601f168201915b5050505050908060030180546103ca90611987565b80601f01602080910402602001604051908101604052809291908181526020018280546103f690611987565b80156104435780601f1061041857610100808354040283529160200191610443565b820191906000526020600020905b81548152906001019060200180831161042657829003601f168201915b50505050600483015460058401546006850154600786015460088701546009880154600a90980154969794966001600160a01b0390941695509193909260ff808216916101009004168c565b61049761159a565b61049f6115f4565b60035481106104c95760405162461bcd60e51b81526004016104c0906119bb565b60405180910390fd5b60008181526002602052604090206007810154421161052a5760405162461bcd60e51b815260206004820152601760248201527f566f74696e6720706572696f64206e6f7420656e64656400000000000000000060448201526064016104c0565b600a81015460ff161561057b5760405162461bcd60e51b8152602060048201526019602482015278141c9bdc1bdcd85b08185b1c9958591e48195e1958dd5d1959603a1b60448201526064016104c0565b600a810154610100900460ff16156105ca5760405162461bcd60e51b8152602060048201526012602482015271141c9bdc1bdcd85b0818d85b98d95b1b195960721b60448201526064016104c0565b80600901548160080154116106195760405162461bcd60e51b815260206004820152601560248201527450726f706f73616c20646964206e6f74207061737360581b60448201526064016104c0565b600a8101805460ff1916600117905560405182907f712ae1383f79ac853f8d882153778e0260ef8f03b504e2866e0593e04d2b291f90600090a25061065d60018055565b50565b61066861159a565b6001600160a01b0381166106be5760405162461bcd60e51b815260206004820152601960248201527f496e76616c69642041495420746f6b656e20616464726573730000000000000060448201526064016104c0565b600480546001600160a01b0319166001600160a01b0392909216919091179055565b600060035483106107035760405162461bcd60e51b81526004016104c0906119bb565b5060008281526002602090815260408083206001600160a01b0385168452600b0190915290205460ff165b92915050565b6004546000906001600160a01b03166107835760405162461bcd60e51b8152602060048201526011602482015270105255081d1bdad95b881b9bdd081cd95d607a1b60448201526064016104c0565b60045460405133602482015260009182916001600160a01b039091169060440160408051601f198184030181529181526020820180516001600160e01b03166370a0823160e01b179052516107d891906119e8565b6000604051808303816000865af19150503d8060008114610815576040519150601f19603f3d011682016040523d82523d6000602084013e61081a565b606091505b50915091508161086c5760405162461bcd60e51b815260206004820152601b60248201527f4661696c656420746f20636865636b204149542062616c616e6365000000000060448201526064016104c0565b6000818060200190518101906108829190611a04565b9050600081116108a45760405162461bcd60e51b81526004016104c090611a1d565b6108ac6115f4565b60008851116108f55760405162461bcd60e51b81526020600482015260156024820152745469746c652063616e6e6f7420626520656d70747960581b60448201526064016104c0565b60008751116109465760405162461bcd60e51b815260206004820152601b60248201527f4465736372697074696f6e2063616e6e6f7420626520656d707479000000000060448201526064016104c0565b60008651116109975760405162461bcd60e51b815260206004820152601860248201527f4c6f636174696f6e2063616e6e6f7420626520656d707479000000000000000060448201526064016104c0565b600085116109e75760405162461bcd60e51b815260206004820152601d60248201527f427564676574206d7573742062652067726561746572207468616e203000000060448201526064016104c0565b60038054600091826109f883611a76565b90915550600081815260026020526040902081815590915060018101610a1e8b82611ade565b5060028101610a2d8a82611ade565b5060038101610a3c8982611ade565b50600481018790556005810180546001600160a01b031916331790554260068201819055610a6e9062093a8090611b9e565b6007820155600a8101805461ffff19169055604051339083907fbd04b5479c6dd97d2cc7727f90a20fe21ccf7121f4f9fdc04a755ee528efeb4490610ab8908e908d908d90611bb1565b60405180910390a3509350610acc60018055565b505050949350505050565b60006003548310610afa5760405162461bcd60e51b81526004016104c0906119bb565b5060008281526002602090815260408083206001600160a01b0385168452600c0190915290205492915050565b610b2f61159a565b610b39600061164d565b565b60606003548210610b5e5760405162461bcd60e51b81526004016104c0906119bb565b6000828152600260205260409020600a810154610100900460ff1615610ba557505060408051808201909152600981526810d85b98d95b1b195960ba1b6020820152919050565b600a81015460ff1615610bd8575050604080518082019091526008815267115e1958dd5d195960c21b6020820152919050565b80600701544211610c0757505060408051808201909152600681526541637469766560d01b6020820152919050565b8060090154816008015411610c3c57505060408051808201909152600881526711195999585d195960c21b6020820152919050565b505060408051808201909152600981526814dd58d8d95959195960ba1b6020820152919050565b50919050565b600060608060606000806000806000806000806003548d10610c9d5760405162461bcd60e51b81526004016104c0906119bb565b60008d81526002602081905260409091208054600482015460058301546006840154600785015460088601546009870154600a880154600189018054999a989990988b019760038c019790966001600160a01b0390911695909490939092909160ff80831692610100900416908b90610d1590611987565b80601f0160208091040260200160405190810160405280929190818152602001828054610d4190611987565b8015610d8e5780601f10610d6357610100808354040283529160200191610d8e565b820191906000526020600020905b815481529060010190602001808311610d7157829003601f168201915b50505050509a50898054610da190611987565b80601f0160208091040260200160405190810160405280929190818152602001828054610dcd90611987565b8015610e1a5780601f10610def57610100808354040283529160200191610e1a565b820191906000526020600020905b815481529060010190602001808311610dfd57829003601f168201915b50505050509950888054610e2d90611987565b80601f0160208091040260200160405190810160405280929190818152602001828054610e5990611987565b8015610ea65780601f10610e7b57610100808354040283529160200191610ea6565b820191906000526020600020905b815481529060010190602001808311610e8957829003601f168201915b505050505098509c509c509c509c509c509c509c509c509c509c509c509c505091939597999b5091939597999b565b6004546001600160a01b0316610f215760405162461bcd60e51b8152602060048201526011602482015270105255081d1bdad95b881b9bdd081cd95d607a1b60448201526064016104c0565b60045460405133602482015260009182916001600160a01b039091169060440160408051601f198184030181529181526020820180516001600160e01b03166370a0823160e01b17905251610f7691906119e8565b6000604051808303816000865af19150503d8060008114610fb3576040519150601f19603f3d011682016040523d82523d6000602084013e610fb8565b606091505b50915091508161100a5760405162461bcd60e51b815260206004820152601b60248201527f4661696c656420746f20636865636b204149542062616c616e6365000000000060448201526064016104c0565b6000818060200190518101906110209190611a04565b9050600081116110425760405162461bcd60e51b81526004016104c090611a1d565b61104a6115f4565b600354851061106b5760405162461bcd60e51b81526004016104c0906119bb565b600085815260026020526040902060068101544210156110c25760405162461bcd60e51b8152602060048201526012602482015271159bdd1a5b99c81b9bdd081cdd185c9d195960721b60448201526064016104c0565b806007015442111561110c5760405162461bcd60e51b8152602060048201526013602482015272159bdd1a5b99c81c195c9a5bd908195b991959606a1b60448201526064016104c0565b336000908152600b8201602052604090205460ff161561115e5760405162461bcd60e51b815260206004820152600d60248201526c105b1c9958591e481d9bdd1959609a1b60448201526064016104c0565b600a81015460ff16156111af5760405162461bcd60e51b8152602060048201526019602482015278141c9bdc1bdcd85b08185b1c9958591e48195e1958dd5d1959603a1b60448201526064016104c0565b600a810154610100900460ff16156111fe5760405162461bcd60e51b8152602060048201526012602482015271141c9bdc1bdcd85b0818d85b98d95b1b195960721b60448201526064016104c0565b60045460405133602482015260009182916001600160a01b039091169060440160408051601f198184030181529181526020820180516001600160e01b03166370a0823160e01b1790525161125391906119e8565b6000604051808303816000865af19150503d8060008114611290576040519150601f19603f3d011682016040523d82523d6000602084013e611295565b606091505b5091509150816112e75760405162461bcd60e51b815260206004820152601960248201527f4661696c656420746f20676574204149542062616c616e63650000000000000060448201526064016104c0565b6000818060200190518101906112fd9190611a04565b9050600081116113415760405162461bcd60e51b815260206004820152600f60248201526e2737903b37ba34b733903837bbb2b960891b60448201526064016104c0565b336000908152600b850160209081526040808320805460ff19166001179055600c87019091529020819055871561139157808460080160008282546113869190611b9e565b909155506113ab9050565b808460090160008282546113a59190611b9e565b90915550505b6040805189151581526020810183905233918b917fcbdf6214089cba887ecbf35a0b6a734589959c9763342c756bb2a80ca2bc9f6e910160405180910390a3505050506113f760018055565b5050505050565b61140661159a565b60035481106114275760405162461bcd60e51b81526004016104c0906119bb565b6000818152600260205260409020600a81015460ff161561148a5760405162461bcd60e51b815260206004820152601f60248201527f43616e6e6f742063616e63656c2065786563757465642070726f706f73616c0060448201526064016104c0565b600a810154610100900460ff16156114e45760405162461bcd60e51b815260206004820152601a60248201527f50726f706f73616c20616c72656164792063616e63656c6c656400000000000060448201526064016104c0565b600a8101805461ff00191661010017905560405182907f416e669c63d9a3a5e36ee7cc7e2104b8db28ccd286aa18966e98fa230c73b08c90600090a25050565b61152c61159a565b6001600160a01b0381166115915760405162461bcd60e51b815260206004820152602660248201527f4f776e61626c653a206e6577206f776e657220697320746865207a65726f206160448201526564647265737360d01b60648201526084016104c0565b61065d8161164d565b6000546001600160a01b03163314610b395760405162461bcd60e51b815260206004820181905260248201527f4f776e61626c653a2063616c6c6572206973206e6f7420746865206f776e657260448201526064016104c0565b6002600154036116465760405162461bcd60e51b815260206004820152601f60248201527f5265656e7472616e637947756172643a207265656e7472616e742063616c6c0060448201526064016104c0565b6002600155565b600080546001600160a01b038381166001600160a01b0319831681178455604051919092169283917f8be0079c531659141344cd1fd0a4f28419497f9722a3daafe3b4186f6b6457e09190a35050565b6000602082840312156116af57600080fd5b5035919050565b60005b838110156116d15781810151838201526020016116b9565b50506000910152565b600081518084526116f28160208601602086016116b6565b601f01601f19169290920160200192915050565b60006101808e83528060208401526117208184018f6116da565b90508281036040840152611734818e6116da565b90508281036060840152611748818d6116da565b91505089608083015260018060a01b03891660a08301528760c08301528660e0830152856101008301528461012083015283151561014083015261179161016083018415159052565b9d9c50505050505050505050505050565b80356001600160a01b03811681146117b957600080fd5b919050565b6000602082840312156117d057600080fd5b6117d9826117a2565b9392505050565b600080604083850312156117f357600080fd5b82359150611803602084016117a2565b90509250929050565b634e487b7160e01b600052604160045260246000fd5b600082601f83011261183357600080fd5b813567ffffffffffffffff8082111561184e5761184e61180c565b604051601f8301601f19908116603f011681019082821181831017156118765761187661180c565b8160405283815286602085880101111561188f57600080fd5b836020870160208301376000602085830101528094505050505092915050565b600080600080608085870312156118c557600080fd5b843567ffffffffffffffff808211156118dd57600080fd5b6118e988838901611822565b955060208701359150808211156118ff57600080fd5b61190b88838901611822565b9450604087013591508082111561192157600080fd5b5061192e87828801611822565b949793965093946060013593505050565b6020815260006117d960208301846116da565b6000806040838503121561196557600080fd5b823591506020830135801515811461197c57600080fd5b809150509250929050565b600181811c9082168061199b57607f821691505b602082108103610c6357634e487b7160e01b600052602260045260246000fd5b602080825260139082015272125b9d985b1a59081c1c9bdc1bdcd85b081251606a1b604082015260600190565b600082516119fa8184602087016116b6565b9190910192915050565b600060208284031215611a1657600080fd5b5051919050565b60208082526023908201527f4d75737420686f6c642041495420746f6b656e7320746f20706172746963697060408201526261746560e81b606082015260800190565b634e487b7160e01b600052601160045260246000fd5b600060018201611a8857611a88611a60565b5060010190565b601f821115611ad957600081815260208120601f850160051c81016020861015611ab65750805b601f850160051c820191505b81811015611ad557828155600101611ac2565b5050505b505050565b815167ffffffffffffffff811115611af857611af861180c565b611b0c81611b068454611987565b84611a8f565b602080601f831160018114611b415760008415611b295750858301515b600019600386901b1c1916600185901b178555611ad5565b600085815260208120601f198616915b82811015611b7057888601518255948401946001909101908401611b51565b5085821015611b8e5787850151600019600388901b60f8161c191681555b5050505050600190811b01905550565b8082018082111561072e5761072e611a60565b606081526000611bc460608301866116da565b8281036020840152611bd681866116da565b91505082604083015294935050505056fea2646970667358221220dc2f6614ae89bf2fcce3b753186ac768c42103246bf9f75b09db3cecb070117364736f6c63430008140033",
  "linkReferences": {},
  "deployedLinkReferences": {}
}