{
  "_format": "hh-sol-artifact-1",
  "contractName": "DeFiYieldPool",
  "sourceName": "contracts/DeFiYieldPool.sol",
  "abi": [
    {
      "anonymous": false,
      "inputs": [
        {
          "indexed": true,
          "internalType": "address",
          "name": "donor",
          "type": "address"
        },
        {
          "indexed": false,
          "internalType": "uint256",
          "name": "amount",
          "type": "uint256"
        }
      ],
      "name": "FundsDeposited",
      "type": "event"
    },
    {
      "anonymous": false,
      "inputs": [
        {
          "indexed": true,
          "internalType": "address",
          "name": "project",
          "type": "address"
        },
        {
          "indexed": false,
          "internalType": "uint256",
          "name": "amount",
          "type": "uint256"
        }
      ],
      "name": "FundsWithdrawnForProject",
      "type": "event"
    },
    {
      "anonymous": false,
      "inputs": [
        {
          "indexed": false,
          "internalType": "uint256",
          "name": "amount",
          "type": "uint256"
        }
      ],
      "name": "MaintenanceFundsWithdrawn",
      "type": "event"
    },
    {
      "anonymous": false,
      "inputs": [
        {
          "indexed": true,
          "internalType": "address",
          "name": "previousOwner",
          "type": "address"
        },
        {
          "indexed": true,
          "internalType": "address",
          "name": "newOwner",
          "type": "address"
        }
      ],
      "name": "OwnershipTransferred",
      "type": "event"
    },
    {
      "anonymous": false,
      "inputs": [
        {
          "indexed": false,
          "internalType": "uint256",
          "name": "amount",
          "type": "uint256"
        }
      ],
      "name": "YieldGenerated",
      "type": "event"
    },
    {
      "inputs": [],
      "name": "AAVE_POOL",
      "outputs": [
        {
          "internalType": "address",
          "name": "",
          "type": "address"
        }
      ],
      "stateMutability": "view",
      "type": "function"
    },
    {
      "inputs": [],
      "name": "MAINTENANCE_PERCENTAGE",
      "outputs": [
        {
          "internalType": "uint256",
          "name": "",
          "type": "uint256"
        }
      ],
      "stateMutability": "view",
      "type": "function"
    },
    {
      "inputs": [],
      "name": "PROJECT_PERCENTAGE",
      "outputs": [
        {
          "internalType": "uint256",
          "name": "",
          "type": "uint256"
        }
      ],
      "stateMutability": "view",
      "type": "function"
    },
    {
      "inputs": [],
      "name": "WETH",
      "outputs": [
        {
          "internalType": "address",
          "name": "",
          "type": "address"
        }
      ],
      "stateMutability": "view",
      "type": "function"
    },
    {
      "inputs": [
        {
          "internalType": "address",
          "name": "donor",
          "type": "address"
        }
      ],
      "name": "depositFunds",
      "outputs": [],
      "stateMutability": "payable",
      "type": "function"
    },
    {
      "inputs": [
        {
          "internalType": "address",
          "name": "",
          "type": "address"
        }
      ],
      "name": "donorContributions",
      "outputs": [
        {
          "internalType": "uint256",
          "name": "",
          "type": "uint256"
        }
      ],
      "stateMutability": "view",
      "type": "function"
    },
    {
      "inputs": [
        {
          "internalType": "address",
          "name": "",
          "type": "address"
        }
      ],
      "name": "donorYieldEarned",
      "outputs": [
        {
          "internalType": "uint256",
          "name": "",
          "type": "uint256"
        }
      ],
      "stateMutability": "view",
      "type": "function"
    },
    {
      "inputs": [],
      "name": "emergencyWithdraw",
      "outputs": [],
      "stateMutability": "nonpayable",
      "type": "function"
    },
    {
      "inputs": [],
      "name": "getAvailableYield",
      "outputs": [
        {
          "internalType": "uint256",
          "name": "",
          "type": "uint256"
        }
      ],
      "stateMutability": "view",
      "type": "function"
    },
    {
      "inputs": [
        {
          "internalType": "address",
          "name": "donor",
          "type": "address"
        }
      ],
      "name": "getDonorStats",
      "outputs": [
        {
          "internalType": "uint256",
          "name": "contribution",
          "type": "uint256"
        },
        {
          "internalType": "uint256",
          "name": "yieldEarned",
          "type": "uint256"
        }
      ],
      "stateMutability": "view",
      "type": "function"
    },
    {
      "inputs": [],
      "name": "getPoolStats",
      "outputs": [
        {
          "internalType": "uint256",
          "name": "deposited",
          "type": "uint256"
        },
        {
          "internalType": "uint256",
          "name": "yield",
          "type": "uint256"
        },
        {
          "internalType": "uint256",
          "name": "withdrawn",
          "type": "uint256"
        }
      ],
      "stateMutability": "view",
      "type": "function"
    },
    {
      "inputs": [],
      "name": "owner",
      "outputs": [
        {
          "internalType": "address",
          "name": "",
          "type": "address"
        }
      ],
      "stateMutability": "view",
      "type": "function"
    },
    {
      "inputs": [],
      "name": "renounceOwnership",
      "outputs": [],
      "stateMutability": "nonpayable",
      "type": "function"
    },
    {
      "inputs": [],
      "name": "totalDeposited",
      "outputs": [
        {
          "internalType": "uint256",
          "name": "",
          "type": "uint256"
        }
      ],
      "stateMutability": "view",
      "type": "function"
    },
    {
      "inputs": [],
      "name": "totalWithdrawnForProjects",
      "outputs": [
        {
          "internalType": "uint256",
          "name": "",
          "type": "uint256"
        }
      ],
      "stateMutability": "view",
      "type": "function"
    },
    {
      "inputs": [],
      "name": "totalYieldGenerated",
      "outputs": [
        {
          "internalType": "uint256",
          "name": "",
          "type": "uint256"
        }
      ],
      "stateMutability": "view",
      "type": "function"
    },
    {
      "inputs": [
        {
          "internalType": "address",
          "name": "newOwner",
          "type": "address"
        }
      ],
      "name": "transferOwnership",
      "outputs": [],
      "stateMutability": "nonpayable",
      "type": "function"
    },
    {
      "inputs": [
        {
          "internalType": "address",
          "name": "projectAddress",
          "type": "address"
        },
        {
          "internalType": "uint256",
          "name": "amount",
          "type": "uint256"
        }
      ],
      "name": "withdrawForProject",
      "outputs": [],
      "stateMutability": "nonpayable",
      "type": "function"
    },
    {
      "inputs": [
        {
          "internalType": "uint256",
          "name": "amount",
          "type": "uint256"
        }
      ],
      "name": "withdrawMaintenanceFunds",
      "outputs": [],
      "stateMutability": "nonpayable",
      "type": "function"
    },
    {
      "stateMutability": "payable",
      "type": "receive"
    }
  ],
  "bytecode": "0x608060405234801561001057600080fd5b5061001a33610023565b60018055610073565b600080546001600160a01b038381166001600160a01b0319831681178455604051919092169283917f8be0079c531659141344cd1fd0a4f28419497f9722a3daafe3b4186f6b6457e09190a35050565b61101b806100826000396000f3fe6080604052600436106101185760003560e01c8063ad5c4648116100a0578063ddf1512b11610064578063ddf1512b14610328578063e0e8e1cb1461033d578063f2fde38b1461035d578063f4374aea1461037d578063ff50abdc146103aa57600080fd5b8063ad5c46481461024d578063bbb8518814610275578063c8eb0c88146102a6578063d7cefc4e146102fe578063db2e21bc1461031357600080fd5b8063715018a6116100e7578063715018a6146101cf57806376d1f6aa146101e65780638c825056146102065780638da5cb5b1461021c578063919747fb1461023a57600080fd5b806308a016751461012457806314379504146101695780632843594f146101a4578063684c7538146101b957600080fd5b3661011f57005b600080fd5b34801561013057600080fd5b5061014c7387870bca3f3fd6335c3f4ce8392d69350b4fa4e281565b6040516001600160a01b0390911681526020015b60405180910390f35b34801561017557600080fd5b50610196610184366004610efc565b60066020526000908152604090205481565b604051908152602001610160565b3480156101b057600080fd5b506101966103c0565b3480156101c557600080fd5b5061019660045481565b3480156101db57600080fd5b506101e46103d6565b005b3480156101f257600080fd5b506101e4610201366004610f1e565b6103ea565b34801561021257600080fd5b5061019660035481565b34801561022857600080fd5b506000546001600160a01b031661014c565b6101e4610248366004610efc565b610638565b34801561025957600080fd5b5061014c73c02aaa39b223fe8d0a0e5c4f27ead9083c756cc281565b34801561028157600080fd5b5060025460035460045460408051938452602084019290925290820152606001610160565b3480156102b257600080fd5b506102e96102c1366004610efc565b6001600160a01b03166000908152600560209081526040808320546006909252909120549091565b60408051928352602083019190915201610160565b34801561030a57600080fd5b50610196604681565b34801561031f57600080fd5b506101e4610903565b34801561033457600080fd5b50610196601e81565b34801561034957600080fd5b506101e4610358366004610f37565b610ad3565b34801561036957600080fd5b506101e4610378366004610efc565b610d67565b34801561038957600080fd5b50610196610398366004610efc565b60056020526000908152604090205481565b3480156103b657600080fd5b5061019660025481565b600060646002546103d19190610f61565b905090565b6103de610ddd565b6103e86000610e37565b565b6103f2610ddd565b6103fa610e87565b6000811161044f5760405162461bcd60e51b815260206004820152601d60248201527f416d6f756e74206d7573742062652067726561746572207468616e203000000060448201526064015b60405180910390fd5b60006104596103c0565b9050808211156104ab5760405162461bcd60e51b815260206004820152601c60248201527f496e73756666696369656e74207969656c6420617661696c61626c65000000006044820152606401610446565b604051631a4ca37b60e21b815273c02aaa39b223fe8d0a0e5c4f27ead9083c756cc26004820152602481018390523060448201526000907387870bca3f3fd6335c3f4ce8392d69350b4fa4e2906369328dec906064016020604051808303816000875af1158015610520573d6000803e3d6000fd5b505050506040513d601f19601f820116820180604052508101906105449190610f83565b604051632e1a7d4d60e01b81526004810182905290915073c02aaa39b223fe8d0a0e5c4f27ead9083c756cc290632e1a7d4d90602401600060405180830381600087803b15801561059457600080fd5b505af11580156105a8573d6000803e3d6000fd5b505050506105be6000546001600160a01b031690565b6001600160a01b03166108fc829081150290604051600060405180830381858888f193505050501580156105f6573d6000803e3d6000fd5b506040518181527fc4d4bd17a5c9998a91638fbc18173baf9dab935ccbb045d6704f59a53cb75d519060200160405180910390a1505061063560018055565b50565b610640610ddd565b610648610e87565b600034116106a65760405162461bcd60e51b815260206004820152602560248201527f4465706f73697420616d6f756e74206d75737420626520677265617465722074604482015264068616e20360dc1b6064820152608401610446565b6001600160a01b0381166106f45760405162461bcd60e51b8152602060048201526015602482015274496e76616c696420646f6e6f72206164647265737360581b6044820152606401610446565b73c02aaa39b223fe8d0a0e5c4f27ead9083c756cc26001600160a01b031663d0e30db0346040518263ffffffff1660e01b81526004016000604051808303818588803b15801561074357600080fd5b505af1158015610757573d6000803e3d6000fd5b505060405163095ea7b360e01b81527387870bca3f3fd6335c3f4ce8392d69350b4fa4e2600482015234602482015273c02aaa39b223fe8d0a0e5c4f27ead9083c756cc2935063095ea7b3925060440190506020604051808303816000875af11580156107c8573d6000803e3d6000fd5b505050506040513d601f19601f820116820180604052508101906107ec9190610f9c565b5060405163617ba03760e01b815273c02aaa39b223fe8d0a0e5c4f27ead9083c756cc26004820152346024820152306044820152600060648201527387870bca3f3fd6335c3f4ce8392d69350b4fa4e29063617ba03790608401600060405180830381600087803b15801561086057600080fd5b505af1158015610874573d6000803e3d6000fd5b50505050346002600082825461088a9190610fbe565b90915550506001600160a01b038116600090815260056020526040812080543492906108b7908490610fbe565b90915550506040513481526001600160a01b038216907f543ba50a5eec5e6178218e364b1d0f396157b3c8fa278522c2cb7fd99407d4749060200160405180910390a261063560018055565b61090b610ddd565b6040516370a0823160e01b815230600482015260009073c02aaa39b223fe8d0a0e5c4f27ead9083c756cc2906370a0823190602401602060405180830381865afa15801561095d573d6000803e3d6000fd5b505050506040513d601f19601f820116820180604052508101906109819190610f83565b9050801561063557604051631a4ca37b60e21b815273c02aaa39b223fe8d0a0e5c4f27ead9083c756cc26004820152602481018290523060448201527387870bca3f3fd6335c3f4ce8392d69350b4fa4e2906369328dec906064016020604051808303816000875af11580156109fb573d6000803e3d6000fd5b505050506040513d601f19601f82011682018060405250810190610a1f9190610f83565b50604051632e1a7d4d60e01b81526004810182905273c02aaa39b223fe8d0a0e5c4f27ead9083c756cc290632e1a7d4d90602401600060405180830381600087803b158015610a6d57600080fd5b505af1158015610a81573d6000803e3d6000fd5b50505050610a976000546001600160a01b031690565b6001600160a01b03166108fc829081150290604051600060405180830381858888f19350505050158015610acf573d6000803e3d6000fd5b5050565b610adb610ddd565b610ae3610e87565b6001600160a01b038216610b395760405162461bcd60e51b815260206004820152601760248201527f496e76616c69642070726f6a65637420616464726573730000000000000000006044820152606401610446565b60008111610b895760405162461bcd60e51b815260206004820152601d60248201527f416d6f756e74206d7573742062652067726561746572207468616e20300000006044820152606401610446565b600254811115610bd05760405162461bcd60e51b8152602060048201526012602482015271496e73756666696369656e742066756e647360701b6044820152606401610446565b604051631a4ca37b60e21b815273c02aaa39b223fe8d0a0e5c4f27ead9083c756cc26004820152602481018290523060448201526000907387870bca3f3fd6335c3f4ce8392d69350b4fa4e2906369328dec906064016020604051808303816000875af1158015610c45573d6000803e3d6000fd5b505050506040513d601f19601f82011682018060405250810190610c699190610f83565b604051632e1a7d4d60e01b81526004810182905290915073c02aaa39b223fe8d0a0e5c4f27ead9083c756cc290632e1a7d4d90602401600060405180830381600087803b158015610cb957600080fd5b505af1158015610ccd573d6000803e3d6000fd5b50506040516001600160a01b038616925083156108fc02915083906000818181858888f19350505050158015610d07573d6000803e3d6000fd5b508060046000828254610d1a9190610fbe565b90915550506040518181526001600160a01b038416907f44006a86af4c69802de1bc7b8ad8d97bcd66b0a44d491257e7b161bb6fd3e3839060200160405180910390a250610acf60018055565b610d6f610ddd565b6001600160a01b038116610dd45760405162461bcd60e51b815260206004820152602660248201527f4f776e61626c653a206e6577206f776e657220697320746865207a65726f206160448201526564647265737360d01b6064820152608401610446565b61063581610e37565b6000546001600160a01b031633146103e85760405162461bcd60e51b815260206004820181905260248201527f4f776e61626c653a2063616c6c6572206973206e6f7420746865206f776e65726044820152606401610446565b600080546001600160a01b038381166001600160a01b0319831681178455604051919092169283917f8be0079c531659141344cd1fd0a4f28419497f9722a3daafe3b4186f6b6457e09190a35050565b600260015403610ed95760405162461bcd60e51b815260206004820152601f60248201527f5265656e7472616e637947756172643a207265656e7472616e742063616c6c006044820152606401610446565b6002600155565b80356001600160a01b0381168114610ef757600080fd5b919050565b600060208284031215610f0e57600080fd5b610f1782610ee0565b9392505050565b600060208284031215610f3057600080fd5b5035919050565b60008060408385031215610f4a57600080fd5b610f5383610ee0565b946020939093013593505050565b600082610f7e57634e487b7160e01b600052601260045260246000fd5b500490565b600060208284031215610f9557600080fd5b5051919050565b600060208284031215610fae57600080fd5b81518015158114610f1757600080fd5b80820180821115610fdf57634e487b7160e01b600052601160045260246000fd5b9291505056fea26469706673582212208a8a83df6fd16f210a2ee0a417b13d71c7efd128f0a3f4d263411cc3096ebe4e64736f6c63430008140033",
  "linkReferences": {},
  "deployedLinkReferences": {}
}