{
  "_format": "hh-sol-artifact-1",
  "contractName": "AquaHopeImpactToken",
  "sourceName": "contracts/AquaHopeImpactToken.sol",
  "abi": [
    {
      "inputs": [],
      "stateMutability": "nonpayable",
      "type": "constructor"
    },
    {
      "anonymous": false,
      "inputs": [
        {
          "indexed": true,
          "internalType": "address",
          "name": "owner",
          "type": "address"
        },
        {
          "indexed": true,
          "internalType": "address",
          "name": "spender",
          "type": "address"
        },
        {
          "indexed": false,
          "internalType": "uint256",
          "name": "value",
          "type": "uint256"
        }
      ],
      "name": "Approval",
      "type": "event"
    },
    {
      "anonymous": false,
      "inputs": [
        {
          "indexed": true,
          "internalType": "address",
          "name": "donor",
          "type": "address"
        },
        {
          "indexed": false,
          "internalType": "string",
          "name": "email",
          "type": "string"
        }
      ],
      "name": "EmailRegistered",
      "type": "event"
    },
    {
      "anonymous": false,
      "inputs": [
        {
          "indexed": true,
          "internalType": "address",
          "name": "previousOwner",
          "type": "address"
        },
        {
          "indexed": true,
          "internalType": "address",
          "name": "newOwner",
          "type": "address"
        }
      ],
      "name": "OwnershipTransferred",
      "type": "event"
    },
    {
      "anonymous": false,
      "inputs": [
        {
          "indexed": true,
          "internalType": "address",
          "name": "donor",
          "type": "address"
        },
        {
          "indexed": false,
          "internalType": "uint256",
          "name": "amount",
          "type": "uint256"
        },
        {
          "indexed": false,
          "internalType": "string",
          "name": "email",
          "type": "string"
        }
      ],
      "name": "TokensMinted",
      "type": "event"
    },
    {
      "anonymous": false,
      "inputs": [
        {
          "indexed": true,
          "internalType": "address",
          "name": "from",
          "type": "address"
        },
        {
          "indexed": true,
          "internalType": "address",
          "name": "to",
          "type": "address"
        },
        {
          "indexed": false,
          "internalType": "uint256",
          "name": "value",
          "type": "uint256"
        }
      ],
      "name": "Transfer",
      "type": "event"
    },
    {
      "anonymous": false,
      "inputs": [
        {
          "indexed": true,
          "internalType": "address",
          "name": "donor",
          "type": "address"
        },
        {
          "indexed": false,
          "internalType": "uint256",
          "name": "newPower",
          "type": "uint256"
        }
      ],
      "name": "VotingPowerUpdated",
      "type": "event"
    },
    {
      "inputs": [],
      "name": "INITIAL_SUPPLY",
      "outputs": [
        {
          "internalType": "uint256",
          "name": "",
          "type": "uint256"
        }
      ],
      "stateMutability": "view",
      "type": "function"
    },
    {
      "inputs": [],
      "name": "TOKENS_PER_ETH",
      "outputs": [
        {
          "internalType": "uint256",
          "name": "",
          "type": "uint256"
        }
      ],
      "stateMutability": "view",
      "type": "function"
    },
    {
      "inputs": [
        {
          "internalType": "address",
          "name": "owner",
          "type": "address"
        },
        {
          "internalType": "address",
          "name": "spender",
          "type": "address"
        }
      ],
      "name": "allowance",
      "outputs": [
        {
          "internalType": "uint256",
          "name": "",
          "type": "uint256"
        }
      ],
      "stateMutability": "view",
      "type": "function"
    },
    {
      "inputs": [
        {
          "internalType": "address",
          "name": "spender",
          "type": "address"
        },
        {
          "internalType": "uint256",
          "name": "amount",
          "type": "uint256"
        }
      ],
      "name": "approve",
      "outputs": [
        {
          "internalType": "bool",
          "name": "",
          "type": "bool"
        }
      ],
      "stateMutability": "nonpayable",
      "type": "function"
    },
    {
      "inputs": [
        {
          "internalType": "address",
          "name": "account",
          "type": "address"
        }
      ],
      "name": "balanceOf",
      "outputs": [
        {
          "internalType": "uint256",
          "name": "",
          "type": "uint256"
        }
      ],
      "stateMutability": "view",
      "type": "function"
    },
    {
      "inputs": [],
      "name": "decimals",
      "outputs": [
        {
          "internalType": "uint8",
          "name": "",
          "type": "uint8"
        }
      ],
      "stateMutability": "view",
      "type": "function"
    },
    {
      "inputs": [
        {
          "internalType": "address",
          "name": "spender",
          "type": "address"
        },
        {
          "internalType": "uint256",
          "name": "subtractedValue",
          "type": "uint256"
        }
      ],
      "name": "decreaseAllowance",
      "outputs": [
        {
          "internalType": "bool",
          "name": "",
          "type": "bool"
        }
      ],
      "stateMutability": "nonpayable",
      "type": "function"
    },
    {
      "inputs": [
        {
          "internalType": "address",
          "name": "",
          "type": "address"
        }
      ],
      "name": "donorEmails",
      "outputs": [
        {
          "internalType": "string",
          "name": "",
          "type": "string"
        }
      ],
      "stateMutability": "view",
      "type": "function"
    },
    {
      "inputs": [
        {
          "internalType": "address",
          "name": "",
          "type": "address"
        }
      ],
      "name": "donorTokens",
      "outputs": [
        {
          "internalType": "uint256",
          "name": "",
          "type": "uint256"
        }
      ],
      "stateMutability": "view",
      "type": "function"
    },
    {
      "inputs": [],
      "name": "emergencyPause",
      "outputs": [],
      "stateMutability": "nonpayable",
      "type": "function"
    },
    {
      "inputs": [
        {
          "internalType": "address",
          "name": "donor",
          "type": "address"
        }
      ],
      "name": "generateTokenCode",
      "outputs": [
        {
          "internalType": "string",
          "name": "",
          "type": "string"
        }
      ],
      "stateMutability": "view",
      "type": "function"
    },
    {
      "inputs": [
        {
          "internalType": "address",
          "name": "donor",
          "type": "address"
        }
      ],
      "name": "getDonorEmail",
      "outputs": [
        {
          "internalType": "string",
          "name": "",
          "type": "string"
        }
      ],
      "stateMutability": "view",
      "type": "function"
    },
    {
      "inputs": [
        {
          "internalType": "address",
          "name": "donor",
          "type": "address"
        }
      ],
      "name": "getDonorTokens",
      "outputs": [
        {
          "internalType": "uint256",
          "name": "",
          "type": "uint256"
        }
      ],
      "stateMutability": "view",
      "type": "function"
    },
    {
      "inputs": [
        {
          "internalType": "address",
          "name": "donor",
          "type": "address"
        }
      ],
      "name": "getVotingPower",
      "outputs": [
        {
          "internalType": "uint256",
          "name": "",
          "type": "uint256"
        }
      ],
      "stateMutability": "view",
      "type": "function"
    },
    {
      "inputs": [
        {
          "internalType": "address",
          "name": "",
          "type": "address"
        }
      ],
      "name": "hasDonated",
      "outputs": [
        {
          "internalType": "bool",
          "name": "",
          "type": "bool"
        }
      ],
      "stateMutability": "view",
      "type": "function"
    },
    {
      "inputs": [
        {
          "internalType": "address",
          "name": "spender",
          "type": "address"
        },
        {
          "internalType": "uint256",
          "name": "addedValue",
          "type": "uint256"
        }
      ],
      "name": "increaseAllowance",
      "outputs": [
        {
          "internalType": "bool",
          "name": "",
          "type": "bool"
        }
      ],
      "stateMutability": "nonpayable",
      "type": "function"
    },
    {
      "inputs": [
        {
          "internalType": "address",
          "name": "donor",
          "type": "address"
        }
      ],
      "name": "isDonor",
      "outputs": [
        {
          "internalType": "bool",
          "name": "",
          "type": "bool"
        }
      ],
      "stateMutability": "view",
      "type": "function"
    },
    {
      "inputs": [
        {
          "internalType": "address",
          "name": "donor",
          "type": "address"
        },
        {
          "internalType": "uint256",
          "name": "ethAmount",
          "type": "uint256"
        },
        {
          "internalType": "string",
          "name": "email",
          "type": "string"
        }
      ],
      "name": "mintTokensForDonation",
      "outputs": [],
      "stateMutability": "nonpayable",
      "type": "function"
    },
    {
      "inputs": [],
      "name": "name",
      "outputs": [
        {
          "internalType": "string",
          "name": "",
          "type": "string"
        }
      ],
      "stateMutability": "view",
      "type": "function"
    },
    {
      "inputs": [],
      "name": "owner",
      "outputs": [
        {
          "internalType": "address",
          "name": "",
          "type": "address"
        }
      ],
      "stateMutability": "view",
      "type": "function"
    },
    {
      "inputs": [],
      "name": "renounceOwnership",
      "outputs": [],
      "stateMutability": "nonpayable",
      "type": "function"
    },
    {
      "inputs": [],
      "name": "symbol",
      "outputs": [
        {
          "internalType": "string",
          "name": "",
          "type": "string"
        }
      ],
      "stateMutability": "view",
      "type": "function"
    },
    {
      "inputs": [],
      "name": "totalSupply",
      "outputs": [
        {
          "internalType": "uint256",
          "name": "",
          "type": "uint256"
        }
      ],
      "stateMutability": "view",
      "type": "function"
    },
    {
      "inputs": [],
      "name": "totalVotingPower",
      "outputs": [
        {
          "internalType": "uint256",
          "name": "",
          "type": "uint256"
        }
      ],
      "stateMutability": "view",
      "type": "function"
    },
    {
      "inputs": [
        {
          "internalType": "address",
          "name": "to",
          "type": "address"
        },
        {
          "internalType": "uint256",
          "name": "amount",
          "type": "uint256"
        }
      ],
      "name": "transfer",
      "outputs": [
        {
          "internalType": "bool",
          "name": "",
          "type": "bool"
        }
      ],
      "stateMutability": "nonpayable",
      "type": "function"
    },
    {
      "inputs": [
        {
          "internalType": "address",
          "name": "from",
          "type": "address"
        },
        {
          "internalType": "address",
          "name": "to",
          "type": "address"
        },
        {
          "internalType": "uint256",
          "name": "amount",
          "type": "uint256"
        }
      ],
      "name": "transferFrom",
      "outputs": [
        {
          "internalType": "bool",
          "name": "",
          "type": "bool"
        }
      ],
      "stateMutability": "nonpayable",
      "type": "function"
    },
    {
      "inputs": [
        {
          "internalType": "address",
          "name": "newOwner",
          "type": "address"
        }
      ],
      "name": "transferOwnership",
      "outputs": [],
      "stateMutability": "nonpayable",
      "type": "function"
    },
    {
      "inputs": [
        {
          "internalType": "address",
          "name": "",
          "type": "address"
        }
      ],
      "name": "votingPower",
      "outputs": [
        {
          "internalType": "uint256",
          "name": "",
          "type": "uint256"
        }
      ],
      "stateMutability": "view",
      "type": "function"
    }
  ],
  "bytecode": "0x60806040523480156200001157600080fd5b506040518060400160405280601581526020017f41717561486f706520496d7061637420546f6b656e00000000000000000000008152506040518060400160405280600381526020016210525560ea1b8152508160039081620000759190620003b4565b506004620000848282620003b4565b505050620000a16200009b620000c260201b60201c565b620000c6565b6001600655620000bc3369d3c21bcecceda100000062000118565b620004c8565b3390565b600580546001600160a01b038381166001600160a01b0319831681179093556040519116919082907f8be0079c531659141344cd1fd0a4f28419497f9722a3daafe3b4186f6b6457e090600090a35050565b6001600160a01b038216620001735760405162461bcd60e51b815260206004820152601f60248201527f45524332303a206d696e7420746f20746865207a65726f206164647265737300604482015260640160405180910390fd5b6200018160008383620001ec565b806002600082825462000195919062000496565b90915550506001600160a01b038216600081815260208181526040808320805486019055518481527fddf252ad1be2c89b69c2b068fc378daa952ba7f163c4a11628f55a4df523b3ef910160405180910390a35050565b6001600160a01b038316158015906200020d57506001600160a01b03821615155b156200030b576001600160a01b0383166000908152600a602052604090205481116200029f576001600160a01b0383166000908152600a6020526040812080548392906200025d908490620004b2565b90915550506001600160a01b0383166000818152600a602090815260409182902054915191825260008051602062001d62833981519152910160405180910390a25b6001600160a01b0382166000908152600a602052604081208054839290620002c990849062000496565b90915550506001600160a01b0382166000818152600a602090815260409182902054915191825260008051602062001d62833981519152910160405180910390a25b505050565b634e487b7160e01b600052604160045260246000fd5b600181811c908216806200033b57607f821691505b6020821081036200035c57634e487b7160e01b600052602260045260246000fd5b50919050565b601f8211156200030b57600081815260208120601f850160051c810160208610156200038b5750805b601f850160051c820191505b81811015620003ac5782815560010162000397565b505050505050565b81516001600160401b03811115620003d057620003d062000310565b620003e881620003e1845462000326565b8462000362565b602080601f831160018114620004205760008415620004075750858301515b600019600386901b1c1916600185901b178555620003ac565b600085815260208120601f198616915b82811015620004515788860151825594840194600190910190840162000430565b5085821015620004705787850151600019600388901b60f8161c191681555b5050505050600190811b01905550565b634e487b7160e01b600052601160045260246000fd5b80820180821115620004ac57620004ac62000480565b92915050565b81810381811115620004ac57620004ac62000480565b61188a80620004d86000396000f3fe608060405234801561001057600080fd5b50600436106101c45760003560e01c80637349f829116100f9578063bc6e660411610097578063dd62ed3e11610071578063dd62ed3e146103dc578063e4b4a2b4146103ef578063ecd5ebf214610418578063f2fde38b1461043857600080fd5b8063bc6e6604146103a0578063bc8d2522146103a9578063c07473f6146103bc57600080fd5b8063a457c2d7116100d3578063a457c2d71461033e578063a9059cbb14610351578063b7568eb914610364578063bb4d44361461037757600080fd5b80637349f829146103085780638da5cb5b1461031b57806395d89b411461033657600080fd5b8063313ce5671161016657806351858e271161014057806351858e27146102c4578063671b3793146102ce57806370a08231146102d7578063715018a61461030057600080fd5b8063313ce5671461028f578063395093511461029e5780634739eb7e146102b157600080fd5b806318160ddd116101a257806318160ddd1461022d57806323b872dd1461023f5780632bc3d7aa146102525780632ff2e9dc1461027e57600080fd5b806306fdde03146101c9578063095ea7b3146101e757806317294a111461020a575b600080fd5b6101d161044b565b6040516101de919061148e565b60405180910390f35b6101fa6101f53660046114bd565b6104dd565b60405190151581526020016101de565b6101fa6102183660046114e7565b60086020526000908152604090205460ff1681565b6002545b6040519081526020016101de565b6101fa61024d366004611502565b6104f7565b6101fa6102603660046114e7565b6001600160a01b031660009081526008602052604090205460ff1690565b61023169d3c21bcecceda100000081565b604051601281526020016101de565b6101fa6102ac3660046114bd565b61051b565b6101d16102bf3660046114e7565b61053d565b6102cc6105e9565b005b610231600b5481565b6102316102e53660046114e7565b6001600160a01b031660009081526020819052604090205490565b6102cc61063e565b6101d16103163660046114e7565b610652565b6005546040516001600160a01b0390911681526020016101de565b6101d16107c6565b6101fa61034c3660046114bd565b6107d5565b6101fa61035f3660046114bd565b610850565b6102cc610372366004611554565b61085e565b6102316103853660046114e7565b6001600160a01b03166000908152600a602052604090205490565b6102316103e881565b6101d16103b73660046114e7565b610b0c565b6102316103ca3660046114e7565b600a6020526000908152604090205481565b6102316103ea36600461161f565b610ba6565b6102316103fd3660046114e7565b6001600160a01b031660009081526007602052604090205490565b6102316104263660046114e7565b60076020526000908152604090205481565b6102cc6104463660046114e7565b610bd1565b60606003805461045a90611652565b80601f016020809104026020016040519081016040528092919081815260200182805461048690611652565b80156104d35780601f106104a8576101008083540402835291602001916104d3565b820191906000526020600020905b8154815290600101906020018083116104b657829003601f168201915b5050505050905090565b6000336104eb818585610c4a565b60019150505b92915050565b600033610505858285610d6e565b610510858585610de8565b506001949350505050565b6000336104eb81858561052e8383610ba6565b61053891906116a2565b610c4a565b6001600160a01b038116600090815260096020526040902080546060919061056490611652565b80601f016020809104026020016040519081016040528092919081815260200182805461059090611652565b80156105dd5780601f106105b2576101008083540402835291602001916105dd565b820191906000526020600020905b8154815290600101906020018083116105c057829003601f168201915b50505050509050919050565b6105f1610f97565b60405162461bcd60e51b815260206004820152601760248201527f5061757365643a206e6f7420696d706c656d656e74656400000000000000000060448201526064015b60405180910390fd5b610646610f97565b6106506000610ff1565b565b6001600160a01b03811660009081526008602052604090205460609060ff166106bd5760405162461bcd60e51b815260206004820152601760248201527f4164647265737320686173206e6f7420646f6e617465640000000000000000006044820152606401610635565b6001600160a01b03821660009081526007602090815260408083205490516bffffffffffffffffffffffff19606087901b1692810192909252426034830152446054830152607482015260940160405160208183030381529060405280519060200120905060006107328260001c6020611043565b60408051600a808252818301909252919250829160009160208201818036833701905050905060005b600a8110156107bc57828181518110610776576107766116b5565b602001015160f81c60f81b828281518110610793576107936116b5565b60200101906001600160f81b031916908160001a905350806107b4816116cb565b91505061075b565b5095945050505050565b60606004805461045a90611652565b600033816107e38286610ba6565b9050838110156108435760405162461bcd60e51b815260206004820152602560248201527f45524332303a2064656372656173656420616c6c6f77616e63652062656c6f77604482015264207a65726f60d81b6064820152608401610635565b6105108286868403610c4a565b6000336104eb818585610de8565b610866610f97565b61086e6111e6565b6001600160a01b0383166108bc5760405162461bcd60e51b8152602060048201526015602482015274496e76616c696420646f6e6f72206164647265737360581b6044820152606401610635565b6000821161091b5760405162461bcd60e51b815260206004820152602660248201527f446f6e6174696f6e20616d6f756e74206d75737420626520677265617465722060448201526507468616e20360d41b6064820152608401610635565b60008151116109645760405162461bcd60e51b8152602060048201526015602482015274456d61696c2063616e6e6f7420626520656d70747960581b6044820152606401610635565b60006109726103e8846116e4565b905061097e848261123f565b6001600160a01b038416600090815260076020526040812080548392906109a69084906116a2565b90915550506001600160a01b0384166000908152600860209081526040808320805460ff19166001179055600990915290206109e28382611749565b506001600160a01b0384166000908152600a602052604081208054839290610a0b9084906116a2565b9250508190555080600b6000828254610a2491906116a2565b92505081905550836001600160a01b03167f9d89e36eadf856db0ad9ffb5a569e07f95634dddd9501141ecf04820484ad0dc8284604051610a66929190611809565b60405180910390a26001600160a01b0384166000818152600a60209081526040918290205491519182527f36ac285914fb5fd49dd16e36cab1e696eda836080e3a61ff587c8671cbbdcab9910160405180910390a2836001600160a01b03167f92700a71b2ce154a36827e2d8595683cbdaf670c2b9840ca07d604a4012d350083604051610af4919061148e565b60405180910390a250610b076001600655565b505050565b60096020526000908152604090208054610b2590611652565b80601f0160208091040260200160405190810160405280929190818152602001828054610b5190611652565b8015610b9e5780601f10610b7357610100808354040283529160200191610b9e565b820191906000526020600020905b815481529060010190602001808311610b8157829003601f168201915b505050505081565b6001600160a01b03918216600090815260016020908152604080832093909416825291909152205490565b610bd9610f97565b6001600160a01b038116610c3e5760405162461bcd60e51b815260206004820152602660248201527f4f776e61626c653a206e6577206f776e657220697320746865207a65726f206160448201526564647265737360d01b6064820152608401610635565b610c4781610ff1565b50565b6001600160a01b038316610cac5760405162461bcd60e51b8152602060048201526024808201527f45524332303a20617070726f76652066726f6d20746865207a65726f206164646044820152637265737360e01b6064820152608401610635565b6001600160a01b038216610d0d5760405162461bcd60e51b815260206004820152602260248201527f45524332303a20617070726f766520746f20746865207a65726f206164647265604482015261737360f01b6064820152608401610635565b6001600160a01b0383811660008181526001602090815260408083209487168084529482529182902085905590518481527f8c5be1e5ebec7d5bd14f71427d1e84f3dd0314c0f7b2291e5b200ac8c7c3b925910160405180910390a3505050565b6000610d7a8484610ba6565b90506000198114610de25781811015610dd55760405162461bcd60e51b815260206004820152601d60248201527f45524332303a20696e73756666696369656e7420616c6c6f77616e63650000006044820152606401610635565b610de28484848403610c4a565b50505050565b6001600160a01b038316610e4c5760405162461bcd60e51b815260206004820152602560248201527f45524332303a207472616e736665722066726f6d20746865207a65726f206164604482015264647265737360d81b6064820152608401610635565b6001600160a01b038216610eae5760405162461bcd60e51b815260206004820152602360248201527f45524332303a207472616e7366657220746f20746865207a65726f206164647260448201526265737360e81b6064820152608401610635565b610eb983838361130a565b6001600160a01b03831660009081526020819052604090205481811015610f315760405162461bcd60e51b815260206004820152602660248201527f45524332303a207472616e7366657220616d6f756e7420657863656564732062604482015265616c616e636560d01b6064820152608401610635565b6001600160a01b03848116600081815260208181526040808320878703905593871680835291849020805487019055925185815290927fddf252ad1be2c89b69c2b068fc378daa952ba7f163c4a11628f55a4df523b3ef910160405180910390a3610de2565b6005546001600160a01b031633146106505760405162461bcd60e51b815260206004820181905260248201527f4f776e61626c653a2063616c6c6572206973206e6f7420746865206f776e65726044820152606401610635565b600580546001600160a01b038381166001600160a01b0319831681179093556040519116919082907f8be0079c531659141344cd1fd0a4f28419497f9722a3daafe3b4186f6b6457e090600090a35050565b606060006110528360026116e4565b61105d9060026116a2565b67ffffffffffffffff8111156110755761107561153e565b6040519080825280601f01601f19166020018201604052801561109f576020820181803683370190505b509050600360fc1b816000815181106110ba576110ba6116b5565b60200101906001600160f81b031916908160001a905350600f60fb1b816001815181106110e9576110e96116b5565b60200101906001600160f81b031916908160001a905350600061110d8460026116e4565b6111189060016116a2565b90505b6001811115611190576f181899199a1a9b1b9c1cb0b131b232b360811b85600f166010811061114c5761114c6116b5565b1a60f81b828281518110611162576111626116b5565b60200101906001600160f81b031916908160001a90535060049490941c936111898161182a565b905061111b565b5083156111df5760405162461bcd60e51b815260206004820181905260248201527f537472696e67733a20686578206c656e67746820696e73756666696369656e746044820152606401610635565b9392505050565b6002600654036112385760405162461bcd60e51b815260206004820152601f60248201527f5265656e7472616e637947756172643a207265656e7472616e742063616c6c006044820152606401610635565b6002600655565b6001600160a01b0382166112955760405162461bcd60e51b815260206004820152601f60248201527f45524332303a206d696e7420746f20746865207a65726f2061646472657373006044820152606401610635565b6112a16000838361130a565b80600260008282546112b391906116a2565b90915550506001600160a01b038216600081815260208181526040808320805486019055518481527fddf252ad1be2c89b69c2b068fc378daa952ba7f163c4a11628f55a4df523b3ef910160405180910390a35050565b6001600160a01b0383161580159061132a57506001600160a01b03821615155b15610b07576001600160a01b0383166000908152600a602052604090205481116113c9576001600160a01b0383166000908152600a602052604081208054839290611376908490611841565b90915550506001600160a01b0383166000818152600a60209081526040918290205491519182527f36ac285914fb5fd49dd16e36cab1e696eda836080e3a61ff587c8671cbbdcab9910160405180910390a25b6001600160a01b0382166000908152600a6020526040812080548392906113f19084906116a2565b90915550506001600160a01b0382166000818152600a60209081526040918290205491519182527f36ac285914fb5fd49dd16e36cab1e696eda836080e3a61ff587c8671cbbdcab9910160405180910390a2505050565b6000815180845260005b8181101561146e57602081850181015186830182015201611452565b506000602082860101526020601f19601f83011685010191505092915050565b6020815260006111df6020830184611448565b80356001600160a01b03811681146114b857600080fd5b919050565b600080604083850312156114d057600080fd5b6114d9836114a1565b946020939093013593505050565b6000602082840312156114f957600080fd5b6111df826114a1565b60008060006060848603121561151757600080fd5b611520846114a1565b925061152e602085016114a1565b9150604084013590509250925092565b634e487b7160e01b600052604160045260246000fd5b60008060006060848603121561156957600080fd5b611572846114a1565b925060208401359150604084013567ffffffffffffffff8082111561159657600080fd5b818601915086601f8301126115aa57600080fd5b8135818111156115bc576115bc61153e565b604051601f8201601f19908116603f011681019083821181831017156115e4576115e461153e565b816040528281528960208487010111156115fd57600080fd5b8260208601602083013760006020848301015280955050505050509250925092565b6000806040838503121561163257600080fd5b61163b836114a1565b9150611649602084016114a1565b90509250929050565b600181811c9082168061166657607f821691505b60208210810361168657634e487b7160e01b600052602260045260246000fd5b50919050565b634e487b7160e01b600052601160045260246000fd5b808201808211156104f1576104f161168c565b634e487b7160e01b600052603260045260246000fd5b6000600182016116dd576116dd61168c565b5060010190565b80820281158282048414176104f1576104f161168c565b601f821115610b0757600081815260208120601f850160051c810160208610156117225750805b601f850160051c820191505b818110156117415782815560010161172e565b505050505050565b815167ffffffffffffffff8111156117635761176361153e565b611777816117718454611652565b846116fb565b602080601f8311600181146117ac57600084156117945750858301515b600019600386901b1c1916600185901b178555611741565b600085815260208120601f198616915b828110156117db578886015182559484019460019091019084016117bc565b50858210156117f95787850151600019600388901b60f8161c191681555b5050505050600190811b01905550565b8281526040602082015260006118226040830184611448565b949350505050565b6000816118395761183961168c565b506000190190565b818103818111156104f1576104f161168c56fea26469706673582212204fbedc1e4d035a07ccb5d6e5cbcae6c429983bade33c6697e00be00b93117f3c64736f6c6343000814003336ac285914fb5fd49dd16e36cab1e696eda836080e3a61ff587c8671cbbdcab9",
  "linkReferences": {},
  "deployedLinkReferences": {}
}