{
  "_format": "hh-sol-artifact-1",
  "contractName": "AquaHopeDonation",
  "sourceName": "contracts/Donation.sol",
  "abi": [
    {
      "inputs": [],
      "stateMutability": "nonpayable",
      "type": "constructor"
    },
    {
      "anonymous": false,
      "inputs": [
        {
          "indexed": true,
          "internalType": "address",
          "name": "donor",
          "type": "address"
        },
        {
          "indexed": false,
          "internalType": "uint256",
          "name": "tokenId",
          "type": "uint256"
        }
      ],
      "name": "BadgeMinted",
      "type": "event"
    },
    {
      "anonymous": false,
      "inputs": [
        {
          "indexed": true,
          "internalType": "address",
          "name": "donor",
          "type": "address"
        },
        {
          "indexed": false,
          "internalType": "uint256",
          "name": "amount",
          "type": "uint256"
        },
        {
          "indexed": false,
          "internalType": "string",
          "name": "name",
          "type": "string"
        },
        {
          "indexed": false,
          "internalType": "string",
          "name": "email",
          "type": "string"
        },
        {
          "indexed": false,
          "internalType": "string",
          "name": "ensName",
          "type": "string"
        },
        {
          "indexed": false,
          "internalType": "string",
          "name": "message",
          "type": "string"
        },
        {
          "indexed": false,
          "internalType": "string",
          "name": "location",
          "type": "string"
        },
        {
          "indexed": false,
          "internalType": "uint256",
          "name": "timestamp",
          "type": "uint256"
        },
        {
          "indexed": false,
          "internalType": "uint256",
          "name": "tokenCode",
          "type": "uint256"
        }
      ],
      "name": "DonationReceived",
      "type": "event"
    },
    {
      "anonymous": false,
      "inputs": [
        {
          "indexed": true,
          "internalType": "address",
          "name": "donor",
          "type": "address"
        },
        {
          "indexed": false,
          "internalType": "string",
          "name": "ensName",
          "type": "string"
        }
      ],
      "name": "EnsNameUpdated",
      "type": "event"
    },
    {
      "anonymous": false,
      "inputs": [
        {
          "indexed": true,
          "internalType": "address",
          "name": "donor",
          "type": "address"
        },
        {
          "indexed": false,
          "internalType": "uint256",
          "name": "amount",
          "type": "uint256"
        }
      ],
      "name": "FundsDepositedToYield",
      "type": "event"
    },
    {
      "anonymous": false,
      "inputs": [
        {
          "indexed": true,
          "internalType": "address",
          "name": "previousOwner",
          "type": "address"
        },
        {
          "indexed": true,
          "internalType": "address",
          "name": "newOwner",
          "type": "address"
        }
      ],
      "name": "OwnershipTransferred",
      "type": "event"
    },
    {
      "anonymous": false,
      "inputs": [
        {
          "indexed": true,
          "internalType": "address",
          "name": "donor",
          "type": "address"
        },
        {
          "indexed": false,
          "internalType": "uint256",
          "name": "amount",
          "type": "uint256"
        }
      ],
      "name": "TokensMinted",
      "type": "event"
    },
    {
      "inputs": [],
      "name": "aitToken",
      "outputs": [
        {
          "internalType": "address",
          "name": "",
          "type": "address"
        }
      ],
      "stateMutability": "view",
      "type": "function"
    },
    {
      "inputs": [],
      "name": "badgeNFT",
      "outputs": [
        {
          "internalType": "address",
          "name": "",
          "type": "address"
        }
      ],
      "stateMutability": "view",
      "type": "function"
    },
    {
      "inputs": [
        {
          "internalType": "string",
          "name": "_name",
          "type": "string"
        },
        {
          "internalType": "string",
          "name": "_email",
          "type": "string"
        },
        {
          "internalType": "string",
          "name": "_message",
          "type": "string"
        },
        {
          "internalType": "string",
          "name": "_location",
          "type": "string"
        }
      ],
      "name": "donate",
      "outputs": [],
      "stateMutability": "payable",
      "type": "function"
    },
    {
      "inputs": [
        {
          "internalType": "uint256",
          "name": "",
          "type": "uint256"
        }
      ],
      "name": "donations",
      "outputs": [
        {
          "internalType": "address",
          "name": "donor",
          "type": "address"
        },
        {
          "internalType": "uint256",
          "name": "amount",
          "type": "uint256"
        },
        {
          "internalType": "string",
          "name": "name",
          "type": "string"
        },
        {
          "internalType": "string",
          "name": "email",
          "type": "string"
        },
        {
          "internalType": "string",
          "name": "ensName",
          "type": "string"
        },
        {
          "internalType": "uint256",
          "name": "timestamp",
          "type": "uint256"
        },
        {
          "internalType": "string",
          "name": "message",
          "type": "string"
        },
        {
          "internalType": "string",
          "name": "location",
          "type": "string"
        },
        {
          "internalType": "bool",
          "name": "tokensMinted",
          "type": "bool"
        },
        {
          "internalType": "bool",
          "name": "badgeMinted",
          "type": "bool"
        },
        {
          "internalType": "uint256",
          "name": "tokenCode",
          "type": "uint256"
        }
      ],
      "stateMutability": "view",
      "type": "function"
    },
    {
      "inputs": [
        {
          "internalType": "address",
          "name": "",
          "type": "address"
        }
      ],
      "name": "donorCount",
      "outputs": [
        {
          "internalType": "uint256",
          "name": "",
          "type": "uint256"
        }
      ],
      "stateMutability": "view",
      "type": "function"
    },
    {
      "inputs": [
        {
          "internalType": "address",
          "name": "",
          "type": "address"
        }
      ],
      "name": "donorEmails",
      "outputs": [
        {
          "internalType": "string",
          "name": "",
          "type": "string"
        }
      ],
      "stateMutability": "view",
      "type": "function"
    },
    {
      "inputs": [
        {
          "internalType": "address",
          "name": "",
          "type": "address"
        }
      ],
      "name": "donorEnsNames",
      "outputs": [
        {
          "internalType": "string",
          "name": "",
          "type": "string"
        }
      ],
      "stateMutability": "view",
      "type": "function"
    },
    {
      "inputs": [
        {
          "internalType": "address",
          "name": "",
          "type": "address"
        }
      ],
      "name": "donorTotalAmount",
      "outputs": [
        {
          "internalType": "uint256",
          "name": "",
          "type": "uint256"
        }
      ],
      "stateMutability": "view",
      "type": "function"
    },
    {
      "inputs": [],
      "name": "emergencyWithdraw",
      "outputs": [],
      "stateMutability": "nonpayable",
      "type": "function"
    },
    {
      "inputs": [],
      "name": "ensRegistry",
      "outputs": [
        {
          "internalType": "address",
          "name": "",
          "type": "address"
        }
      ],
      "stateMutability": "view",
      "type": "function"
    },
    {
      "inputs": [],
      "name": "getContractBalance",
      "outputs": [
        {
          "internalType": "uint256",
          "name": "",
          "type": "uint256"
        }
      ],
      "stateMutability": "view",
      "type": "function"
    },
    {
      "inputs": [
        {
          "internalType": "uint256",
          "name": "_index",
          "type": "uint256"
        }
      ],
      "name": "getDonation",
      "outputs": [
        {
          "internalType": "address",
          "name": "donor",
          "type": "address"
        },
        {
          "internalType": "uint256",
          "name": "amount",
          "type": "uint256"
        },
        {
          "internalType": "string",
          "name": "name",
          "type": "string"
        },
        {
          "internalType": "string",
          "name": "email",
          "type": "string"
        },
        {
          "internalType": "string",
          "name": "ensName",
          "type": "string"
        },
        {
          "internalType": "uint256",
          "name": "timestamp",
          "type": "uint256"
        },
        {
          "internalType": "string",
          "name": "message",
          "type": "string"
        },
        {
          "internalType": "string",
          "name": "location",
          "type": "string"
        },
        {
          "internalType": "bool",
          "name": "tokensMinted",
          "type": "bool"
        },
        {
          "internalType": "bool",
          "name": "badgeMinted",
          "type": "bool"
        },
        {
          "internalType": "uint256",
          "name": "tokenCode",
          "type": "uint256"
        }
      ],
      "stateMutability": "view",
      "type": "function"
    },
    {
      "inputs": [
        {
          "internalType": "uint256",
          "name": "_tokenCode",
          "type": "uint256"
        }
      ],
      "name": "getDonationByTokenCode",
      "outputs": [
        {
          "internalType": "address",
          "name": "donor",
          "type": "address"
        },
        {
          "internalType": "uint256",
          "name": "amount",
          "type": "uint256"
        },
        {
          "internalType": "string",
          "name": "name",
          "type": "string"
        },
        {
          "internalType": "string",
          "name": "email",
          "type": "string"
        },
        {
          "internalType": "string",
          "name": "ensName",
          "type": "string"
        },
        {
          "internalType": "uint256",
          "name": "timestamp",
          "type": "uint256"
        },
        {
          "internalType": "string",
          "name": "message",
          "type": "string"
        },
        {
          "internalType": "string",
          "name": "location",
          "type": "string"
        },
        {
          "internalType": "bool",
          "name": "tokensMinted",
          "type": "bool"
        },
        {
          "internalType": "bool",
          "name": "badgeMinted",
          "type": "bool"
        }
      ],
      "stateMutability": "view",
      "type": "function"
    },
    {
      "inputs": [],
      "name": "getDonationCount",
      "outputs": [
        {
          "internalType": "uint256",
          "name": "",
          "type": "uint256"
        }
      ],
      "stateMutability": "view",
      "type": "function"
    },
    {
      "inputs": [
        {
          "internalType": "address",
          "name": "donor",
          "type": "address"
        }
      ],
      "name": "getDonorEmail",
      "outputs": [
        {
          "internalType": "string",
          "name": "",
          "type": "string"
        }
      ],
      "stateMutability": "view",
      "type": "function"
    },
    {
      "inputs": [
        {
          "internalType": "address",
          "name": "donor",
          "type": "address"
        }
      ],
      "name": "getDonorEnsName",
      "outputs": [
        {
          "internalType": "string",
          "name": "",
          "type": "string"
        }
      ],
      "stateMutability": "view",
      "type": "function"
    },
    {
      "inputs": [
        {
          "internalType": "address",
          "name": "donor",
          "type": "address"
        }
      ],
      "name": "getDonorTotalContribution",
      "outputs": [
        {
          "internalType": "uint256",
          "name": "",
          "type": "uint256"
        }
      ],
      "stateMutability": "view",
      "type": "function"
    },
    {
      "inputs": [
        {
          "internalType": "uint256",
          "name": "_count",
          "type": "uint256"
        }
      ],
      "name": "getRecentDonations",
      "outputs": [
        {
          "components": [
            {
              "internalType": "address",
              "name": "donor",
              "type": "address"
            },
            {
              "internalType": "uint256",
              "name": "amount",
              "type": "uint256"
            },
            {
              "internalType": "string",
              "name": "name",
              "type": "string"
            },
            {
              "internalType": "string",
              "name": "email",
              "type": "string"
            },
            {
              "internalType": "string",
              "name": "ensName",
              "type": "string"
            },
            {
              "internalType": "uint256",
              "name": "timestamp",
              "type": "uint256"
            },
            {
              "internalType": "string",
              "name": "message",
              "type": "string"
            },
            {
              "internalType": "string",
              "name": "location",
              "type": "string"
            },
            {
              "internalType": "bool",
              "name": "tokensMinted",
              "type": "bool"
            },
            {
              "internalType": "bool",
              "name": "badgeMinted",
              "type": "bool"
            },
            {
              "internalType": "uint256",
              "name": "tokenCode",
              "type": "uint256"
            }
          ],
          "internalType": "struct AquaHopeDonation.Donation[]",
          "name": "",
          "type": "tuple[]"
        }
      ],
      "stateMutability": "view",
      "type": "function"
    },
    {
      "inputs": [],
      "name": "governance",
      "outputs": [
        {
          "internalType": "address",
          "name": "",
          "type": "address"
        }
      ],
      "stateMutability": "view",
      "type": "function"
    },
    {
      "inputs": [
        {
          "internalType": "uint256",
          "name": "tokenCode",
          "type": "uint256"
        }
      ],
      "name": "isTokenCodeUsed",
      "outputs": [
        {
          "internalType": "bool",
          "name": "",
          "type": "bool"
        }
      ],
      "stateMutability": "view",
      "type": "function"
    },
    {
      "inputs": [
        {
          "internalType": "uint256",
          "name": "donationIndex",
          "type": "uint256"
        }
      ],
      "name": "mintTokensAndBadge",
      "outputs": [],
      "stateMutability": "nonpayable",
      "type": "function"
    },
    {
      "inputs": [],
      "name": "owner",
      "outputs": [
        {
          "internalType": "address",
          "name": "",
          "type": "address"
        }
      ],
      "stateMutability": "view",
      "type": "function"
    },
    {
      "inputs": [],
      "name": "renounceOwnership",
      "outputs": [],
      "stateMutability": "nonpayable",
      "type": "function"
    },
    {
      "inputs": [
        {
          "internalType": "address",
          "name": "_ensRegistry",
          "type": "address"
        }
      ],
      "name": "setEnsRegistry",
      "outputs": [],
      "stateMutability": "nonpayable",
      "type": "function"
    },
    {
      "inputs": [
        {
          "internalType": "address",
          "name": "_aitToken",
          "type": "address"
        },
        {
          "internalType": "address",
          "name": "_yieldPool",
          "type": "address"
        },
        {
          "internalType": "address",
          "name": "_governance",
          "type": "address"
        },
        {
          "internalType": "address",
          "name": "_badgeNFT",
          "type": "address"
        }
      ],
      "name": "setIntegrationContracts",
      "outputs": [],
      "stateMutability": "nonpayable",
      "type": "function"
    },
    {
      "inputs": [],
      "name": "totalDonations",
      "outputs": [
        {
          "internalType": "uint256",
          "name": "",
          "type": "uint256"
        }
      ],
      "stateMutability": "view",
      "type": "function"
    },
    {
      "inputs": [],
      "name": "totalDonors",
      "outputs": [
        {
          "internalType": "uint256",
          "name": "",
          "type": "uint256"
        }
      ],
      "stateMutability": "view",
      "type": "function"
    },
    {
      "inputs": [
        {
          "internalType": "address",
          "name": "newOwner",
          "type": "address"
        }
      ],
      "name": "transferOwnership",
      "outputs": [],
      "stateMutability": "nonpayable",
      "type": "function"
    },
    {
      "inputs": [
        {
          "internalType": "uint256",
          "name": "",
          "type": "uint256"
        }
      ],
      "name": "usedTokenCodes",
      "outputs": [
        {
          "internalType": "bool",
          "name": "",
          "type": "bool"
        }
      ],
      "stateMutability": "view",
      "type": "function"
    },
    {
      "inputs": [],
      "name": "yieldPool",
      "outputs": [
        {
          "internalType": "address",
          "name": "",
          "type": "address"
        }
      ],
      "stateMutability": "view",
      "type": "function"
    },
    {
      "stateMutability": "payable",
      "type": "receive"
    }
  ],
  "bytecode": "0x608060405234801561001057600080fd5b5061001a33610023565b60018055610073565b600080546001600160a01b038381166001600160a01b0319831681178455604051919092169283917f8be0079c531659141344cd1fd0a4f28419497f9722a3daafe3b4186f6b6457e09190a35050565b612daa80620000836000396000f3fe6080604052600436106101d05760003560e01c8063aba698c0116100f7578063e1859d7311610095578063f2fde38b11610064578063f2fde38b1461057d578063f48fd0b51461059d578063f4c8b3d5146105d3578063f8626af81461060357600080fd5b8063e1859d73146104f1578063e55a62a814610511578063e7c6568714610526578063ef07a81f1461054657600080fd5b8063c3e9ee19116100d1578063c3e9ee191461047d578063d589db7f146104b3578063db2e21bc146104c6578063de2ed893146104db57600080fd5b8063aba698c0146103fd578063b1848fe11461043d578063bc8d25221461045d57600080fd5b80636f9fb98a1161016f5780638da5cb5b1161013e5780638da5cb5b146103725780638f188dd41461039057806397646a8f146103b0578063a03c5709146103d057600080fd5b80636f9fb98a146102fd578063715018a61461031057806378fcbfea146103255780637d73b2311461035257600080fd5b80633e8b9dc6116101ab5780633e8b9dc6146102635780634348e0e9146102855780634739eb7e146102bd5780635aa6e675146102dd57600080fd5b80623062ca146101dc57806308903f501461021257806325c302e41461023f57600080fd5b366101d757005b600080fd5b3480156101e857600080fd5b506101fc6101f73660046124aa565b610623565b6040516102099190612513565b60405180910390f35b34801561021e57600080fd5b5061023261022d366004612658565b610ac0565b604051610209919061267a565b34801561024b57600080fd5b5061025560035481565b604051908152602001610209565b34801561026f57600080fd5b5061028361027e3660046124aa565b610b6c565b005b34801561029157600080fd5b506007546102a5906001600160a01b031681565b6040516001600160a01b039091168152602001610209565b3480156102c957600080fd5b506102326102d8366004612658565b610ee9565b3480156102e957600080fd5b506006546102a5906001600160a01b031681565b34801561030957600080fd5b5047610255565b34801561031c57600080fd5b50610283610f10565b34801561033157600080fd5b50610255610340366004612658565b600a6020526000908152604090205481565b34801561035e57600080fd5b506008546102a5906001600160a01b031681565b34801561037e57600080fd5b506000546001600160a01b03166102a5565b34801561039c57600080fd5b506005546102a5906001600160a01b031681565b3480156103bc57600080fd5b506102836103cb36600461268d565b610f24565b3480156103dc57600080fd5b506102556103eb366004612658565b60096020526000908152604090205481565b34801561040957600080fd5b5061042d6104183660046124aa565b6000908152600d602052604090205460ff1690565b6040519015158152602001610209565b34801561044957600080fd5b50610232610458366004612658565b610f7c565b34801561046957600080fd5b50610232610478366004612658565b611016565b34801561048957600080fd5b5061049d6104983660046124aa565b61102f565b6040516102099a999897969594939291906126e1565b6102836104c1366004612849565b6114b1565b3480156104d257600080fd5b50610283611a5d565b3480156104e757600080fd5b5061025560025481565b3480156104fd57600080fd5b506004546102a5906001600160a01b031681565b34801561051d57600080fd5b50600e54610255565b34801561053257600080fd5b50610283610541366004612658565b611ae3565b34801561055257600080fd5b506105666105613660046124aa565b611b0d565b6040516102099b9a999897969594939291906128f6565b34801561058957600080fd5b50610283610598366004612658565b611f5a565b3480156105a957600080fd5b506102556105b8366004612658565b6001600160a01b03166000908152600a602052604090205490565b3480156105df57600080fd5b5061042d6105ee3660046124aa565b600d6020526000908152604090205460ff1681565b34801561060f57600080fd5b5061056661061e3660046124aa565b611fd3565b600e5460609080831115610635578092505b60008367ffffffffffffffff81111561065057610650612784565b6040519080825280602002602001820160405280156106eb57816020015b6106d860405180610160016040528060006001600160a01b0316815260200160008152602001606081526020016060815260200160608152602001600081526020016060815260200160608152602001600015158152602001600015158152602001600081525090565b81526020019060019003908161066e5790505b50905060006106fa85846129c0565b905060005b85811015610ab657600e61071382846129d3565b81548110610723576107236129e6565b90600052602060002090600a0201604051806101600160405290816000820160009054906101000a90046001600160a01b03166001600160a01b03166001600160a01b0316815260200160018201548152602001600282018054610786906129fc565b80601f01602080910402602001604051908101604052809291908181526020018280546107b2906129fc565b80156107ff5780601f106107d4576101008083540402835291602001916107ff565b820191906000526020600020905b8154815290600101906020018083116107e257829003601f168201915b50505050508152602001600382018054610818906129fc565b80601f0160208091040260200160405190810160405280929190818152602001828054610844906129fc565b80156108915780601f1061086657610100808354040283529160200191610891565b820191906000526020600020905b81548152906001019060200180831161087457829003601f168201915b505050505081526020016004820180546108aa906129fc565b80601f01602080910402602001604051908101604052809291908181526020018280546108d6906129fc565b80156109235780601f106108f857610100808354040283529160200191610923565b820191906000526020600020905b81548152906001019060200180831161090657829003601f168201915b5050505050815260200160058201548152602001600682018054610946906129fc565b80601f0160208091040260200160405190810160405280929190818152602001828054610972906129fc565b80156109bf5780601f10610994576101008083540402835291602001916109bf565b820191906000526020600020905b8154815290600101906020018083116109a257829003601f168201915b505050505081526020016007820180546109d8906129fc565b80601f0160208091040260200160405190810160405280929190818152602001828054610a04906129fc565b8015610a515780601f10610a2657610100808354040283529160200191610a51565b820191906000526020600020905b815481529060010190602001808311610a3457829003601f168201915b5050509183525050600882015460ff8082161515602084015261010090910416151560408201526009909101546060909101528351849083908110610a9857610a986129e6565b60200260200101819052508080610aae90612a36565b9150506106ff565b5090949350505050565b6001600160a01b0381166000908152600c60205260409020805460609190610ae7906129fc565b80601f0160208091040260200160405190810160405280929190818152602001828054610b13906129fc565b8015610b605780601f10610b3557610100808354040283529160200191610b60565b820191906000526020600020905b815481529060010190602001808311610b4357829003601f168201915b50505050509050919050565b610b746122f3565b600e548110610bc35760405162461bcd60e51b8152602060048201526016602482015275092dcecc2d8d2c840c8dedcc2e8d2dedc40d2dcc8caf60531b60448201526064015b60405180910390fd5b6000600e8281548110610bd857610bd86129e6565b60009182526020909120600a90910201600881015490915060ff1615610c385760405162461bcd60e51b8152602060048201526015602482015274151bdad95b9cc8185b1c9958591e481b5a5b9d1959605a1b6044820152606401610bba565b6008810154610100900460ff1615610c895760405162461bcd60e51b815260206004820152601460248201527310985919d948185b1c9958591e481b5a5b9d195960621b6044820152606401610bba565b6004546001600160a01b031615610da557600454815460018301546040516000936001600160a01b0390811693610cca939116916003870190602401612acc565b60408051601f198184030181529181526020820180516001600160e01b031663b7568eb960e01b17905251610cff9190612afc565b6000604051808303816000865af19150503d8060008114610d3c576040519150601f19603f3d011682016040523d82523d6000602084013e610d41565b606091505b505090508015610da35760088201805460ff191660019081179091558254908301546040519081526001600160a01b03909116907f3f2c9d57c068687834f0de942a9babb9e5acab57d516d3480a3c16ee165a42739060200160405180910390a25b505b6007546001600160a01b031615610ee557600780548254600184015460405160009485946001600160a01b0390811694610dee9491169290918801906006890190602401612b18565b60408051601f198184030181529181526020820180516001600160e01b03166303dbc88160e51b17905251610e239190612afc565b6000604051808303816000865af19150503d8060008114610e60576040519150601f19603f3d011682016040523d82523d6000602084013e610e65565b606091505b50915091508115610ee257600081806020019051810190610e869190612b5c565b60088501805461ff00191661010017905584546040519192506001600160a01b0316907fc5e5b314108c1f776c2302351b8278910ddb812b122b2717b1bc973146145e9a90610ed89084815260200190565b60405180910390a2505b50505b5050565b6001600160a01b0381166000908152600b60205260409020805460609190610ae7906129fc565b610f186122f3565b610f22600061234d565b565b610f2c6122f3565b600480546001600160a01b039586166001600160a01b0319918216179091556005805494861694821694909417909355600680549285169284169290921790915560078054919093169116179055565b600c6020526000908152604090208054610f95906129fc565b80601f0160208091040260200160405190810160405280929190818152602001828054610fc1906129fc565b801561100e5780601f10610fe35761010080835404028352916020019161100e565b820191906000526020600020905b815481529060010190602001808311610ff157829003601f168201915b505050505081565b600b6020526000908152604090208054610f95906129fc565b6000806060806060600060608060008060005b600e54811015611466578b600e8281548110611060576110606129e6565b90600052602060002090600a02016009015403611454576000600e828154811061108c5761108c6129e6565b90600052602060002090600a0201604051806101600160405290816000820160009054906101000a90046001600160a01b03166001600160a01b03166001600160a01b03168152602001600182015481526020016002820180546110ef906129fc565b80601f016020809104026020016040519081016040528092919081815260200182805461111b906129fc565b80156111685780601f1061113d57610100808354040283529160200191611168565b820191906000526020600020905b81548152906001019060200180831161114b57829003601f168201915b50505050508152602001600382018054611181906129fc565b80601f01602080910402602001604051908101604052809291908181526020018280546111ad906129fc565b80156111fa5780601f106111cf576101008083540402835291602001916111fa565b820191906000526020600020905b8154815290600101906020018083116111dd57829003601f168201915b50505050508152602001600482018054611213906129fc565b80601f016020809104026020016040519081016040528092919081815260200182805461123f906129fc565b801561128c5780601f106112615761010080835404028352916020019161128c565b820191906000526020600020905b81548152906001019060200180831161126f57829003601f168201915b50505050508152602001600582015481526020016006820180546112af906129fc565b80601f01602080910402602001604051908101604052809291908181526020018280546112db906129fc565b80156113285780601f106112fd57610100808354040283529160200191611328565b820191906000526020600020905b81548152906001019060200180831161130b57829003601f168201915b50505050508152602001600782018054611341906129fc565b80601f016020809104026020016040519081016040528092919081815260200182805461136d906129fc565b80156113ba5780601f1061138f576101008083540402835291602001916113ba565b820191906000526020600020905b81548152906001019060200180831161139d57829003601f168201915b505050505081526020016008820160009054906101000a900460ff161515151581526020016008820160019054906101000a900460ff161515151581526020016009820154815250509050806000015181602001518260400151836060015184608001518560a001518660c001518760e001518861010001518961012001519b509b509b509b509b509b509b509b509b509b5050506114a4565b8061145e81612a36565b915050611042565b5060405162461bcd60e51b8152602060048201526012602482015271111bdb985d1a5bdb881b9bdd08199bdd5b9960721b6044820152606401610bba565b9193959799509193959799565b6114b961239d565b600034116115185760405162461bcd60e51b815260206004820152602660248201527f446f6e6174696f6e20616d6f756e74206d75737420626520677265617465722060448201526507468616e20360d41b6064820152608401610bba565b60008451116115605760405162461bcd60e51b81526020600482015260146024820152734e616d652063616e6e6f7420626520656d70747960601b6044820152606401610bba565b60008351116115a95760405162461bcd60e51b8152602060048201526015602482015274456d61696c2063616e6e6f7420626520656d70747960581b6044820152606401610bba565b600e54604080516bffffffffffffffffffffffff193360601b1660208083019190915242603483015244605483015260748083019490945282518083039094018452609490910182528251928101929092206000818152600d90935291205460ff161561164f5760405162461bcd60e51b81526020600482015260146024820152732a37b5b2b71031b7b2329031b7b63634b9b4b7b760611b6044820152606401610bba565b6000818152600d60205260408120805460ff19166001179055611671336123f6565b6040805161016081018252338152346020820190815291810189815260608201899052608082018490524260a083015260c0820188905260e082018790526000610100830181905261012083018190526101408301879052600e8054600181018255915282517fbb7b4a454dc3493923482f07822329ed19e8244eff582cc204f8554c3620c3fd600a90920291820180546001600160a01b0319166001600160a01b0390921691909117815593517fbb7b4a454dc3493923482f07822329ed19e8244eff582cc204f8554c3620c3fe820155905193945090927fbb7b4a454dc3493923482f07822329ed19e8244eff582cc204f8554c3620c3ff909101906117799082612bc4565b506060820151600382019061178e9082612bc4565b50608082015160048201906117a39082612bc4565b5060a0820151600582015560c082015160068201906117c29082612bc4565b5060e082015160078201906117d79082612bc4565b506101008281015160088301805461012086015161ffff1990911692151561ff0019169290921791151590920217905561014090910151600990910155600280543491906000906118299084906129d3565b909155505033600090815260096020526040812054900361185a576003805490600061185483612a36565b91905055505b33600090815260096020526040812080549161187583612a36565b9091555050336000908152600a6020526040812080543492906118999084906129d3565b9091555050336000908152600b602052604090206118b78682612bc4565b5080511561191b57336000908152600c602052604090206118d88282612bc4565b50336001600160a01b03167f81bdbec716cb76eea9f27da0fa853319239fbb15d3b36064f4f04d249669e34082604051611912919061267a565b60405180910390a25b6005546001600160a01b031615611a03576005546040513360248201526000916001600160a01b031690349060440160408051601f198184030181529181526020820180516001600160e01b031663919747fb60e01b1790525161197f9190612afc565b60006040518083038185875af1925050503d80600081146119bc576040519150601f19603f3d011682016040523d82523d6000602084013e6119c1565b606091505b505090508015611a015760405134815233907f7256b146f0679f7da3b81a80da652e607217780dce3497466a5c2ff9da4bae3c9060200160405180910390a25b505b336001600160a01b03167f3ac419eda321052f8079ce0d98ef9abfc8825b24658133852a3c0a0ec405a52e348888858989428a604051611a4a989796959493929190612c84565b60405180910390a25050610ee260018055565b611a656122f3565b4780611aaa5760405162461bcd60e51b81526020600482015260146024820152734e6f2066756e647320746f20776974686472617760601b6044820152606401610bba565b600080546040516001600160a01b039091169183156108fc02918491818181858888f19350505050158015610ee5573d6000803e3d6000fd5b611aeb6122f3565b600880546001600160a01b0319166001600160a01b0392909216919091179055565b600080606080606060006060806000806000600e805490508c10611b6c5760405162461bcd60e51b8152602060048201526016602482015275092dcecc2d8d2c840c8dedcc2e8d2dedc40d2dcc8caf60531b6044820152606401610bba565b6000600e8d81548110611b8157611b816129e6565b90600052602060002090600a0201604051806101600160405290816000820160009054906101000a90046001600160a01b03166001600160a01b03166001600160a01b0316815260200160018201548152602001600282018054611be4906129fc565b80601f0160208091040260200160405190810160405280929190818152602001828054611c10906129fc565b8015611c5d5780601f10611c3257610100808354040283529160200191611c5d565b820191906000526020600020905b815481529060010190602001808311611c4057829003601f168201915b50505050508152602001600382018054611c76906129fc565b80601f0160208091040260200160405190810160405280929190818152602001828054611ca2906129fc565b8015611cef5780601f10611cc457610100808354040283529160200191611cef565b820191906000526020600020905b815481529060010190602001808311611cd257829003601f168201915b50505050508152602001600482018054611d08906129fc565b80601f0160208091040260200160405190810160405280929190818152602001828054611d34906129fc565b8015611d815780601f10611d5657610100808354040283529160200191611d81565b820191906000526020600020905b815481529060010190602001808311611d6457829003601f168201915b5050505050815260200160058201548152602001600682018054611da4906129fc565b80601f0160208091040260200160405190810160405280929190818152602001828054611dd0906129fc565b8015611e1d5780601f10611df257610100808354040283529160200191611e1d565b820191906000526020600020905b815481529060010190602001808311611e0057829003601f168201915b50505050508152602001600782018054611e36906129fc565b80601f0160208091040260200160405190810160405280929190818152602001828054611e62906129fc565b8015611eaf5780601f10611e8457610100808354040283529160200191611eaf565b820191906000526020600020905b815481529060010190602001808311611e9257829003601f168201915b505050505081526020016008820160009054906101000a900460ff161515151581526020016008820160019054906101000a900460ff161515151581526020016009820154815250509050806000015181602001518260400151836060015184608001518560a001518660c001518760e001518861010001518961012001518a61014001519b509b509b509b509b509b509b509b509b509b509b505091939597999b90929496989a50565b611f626122f3565b6001600160a01b038116611fc75760405162461bcd60e51b815260206004820152602660248201527f4f776e61626c653a206e6577206f776e657220697320746865207a65726f206160448201526564647265737360d01b6064820152608401610bba565b611fd08161234d565b50565b600e8181548110611fe357600080fd5b60009182526020909120600a90910201805460018201546002830180546001600160a01b039093169450909291612019906129fc565b80601f0160208091040260200160405190810160405280929190818152602001828054612045906129fc565b80156120925780601f1061206757610100808354040283529160200191612092565b820191906000526020600020905b81548152906001019060200180831161207557829003601f168201915b5050505050908060030180546120a7906129fc565b80601f01602080910402602001604051908101604052809291908181526020018280546120d3906129fc565b80156121205780601f106120f557610100808354040283529160200191612120565b820191906000526020600020905b81548152906001019060200180831161210357829003601f168201915b505050505090806004018054612135906129fc565b80601f0160208091040260200160405190810160405280929190818152602001828054612161906129fc565b80156121ae5780601f10612183576101008083540402835291602001916121ae565b820191906000526020600020905b81548152906001019060200180831161219157829003601f168201915b5050505050908060050154908060060180546121c9906129fc565b80601f01602080910402602001604051908101604052809291908181526020018280546121f5906129fc565b80156122425780601f1061221757610100808354040283529160200191612242565b820191906000526020600020905b81548152906001019060200180831161222557829003601f168201915b505050505090806007018054612257906129fc565b80601f0160208091040260200160405190810160405280929190818152602001828054612283906129fc565b80156122d05780601f106122a5576101008083540402835291602001916122d0565b820191906000526020600020905b8154815290600101906020018083116122b357829003601f168201915b505050506008830154600990930154919260ff808216936101009092041691508b565b6000546001600160a01b03163314610f225760405162461bcd60e51b815260206004820181905260248201527f4f776e61626c653a2063616c6c6572206973206e6f7420746865206f776e65726044820152606401610bba565b600080546001600160a01b038381166001600160a01b0319831681178455604051919092169283917f8be0079c531659141344cd1fd0a4f28419497f9722a3daafe3b4186f6b6457e09190a35050565b6002600154036123ef5760405162461bcd60e51b815260206004820152601f60248201527f5265656e7472616e637947756172643a207265656e7472616e742063616c6c006044820152606401610bba565b6002600155565b6008546060906001600160a01b031661241d57505060408051602081019091526000815290565b60085460405162cc244960e11b81526001600160a01b03848116600483015290911690630198489290602401600060405180830381865afa92505050801561248757506040513d6000823e601f3d908101601f191682016040526124849190810190612d06565b60015b61249f57505060408051602081019091526000815290565b92915050565b919050565b6000602082840312156124bc57600080fd5b5035919050565b60005b838110156124de5781810151838201526020016124c6565b50506000910152565b600081518084526124ff8160208601602086016124c3565b601f01601f19169290920160200192915050565b60006020808301818452808551808352604092508286019150828160051b87010184880160005b8381101561263357888303603f19018552815180516001600160a01b03168452610160888201518986015287820151818987015261257a828701826124e7565b9150506060808301518683038288015261259483826124e7565b92505050608080830151868303828801526125af83826124e7565b9250505060a080830151818701525060c080830151868303828801526125d583826124e7565b9250505060e080830151868303828801526125f083826124e7565b92505050610100808301516126088288018215159052565b505061012082810151151590860152610140918201519190940152938601939086019060010161253a565b509098975050505050505050565b80356001600160a01b03811681146124a557600080fd5b60006020828403121561266a57600080fd5b61267382612641565b9392505050565b60208152600061267360208301846124e7565b600080600080608085870312156126a357600080fd5b6126ac85612641565b93506126ba60208601612641565b92506126c860408601612641565b91506126d660608601612641565b905092959194509250565b6001600160a01b038b168152602081018a90526101406040820181905260009061270d8382018c6124e7565b90508281036060840152612721818b6124e7565b90508281036080840152612735818a6124e7565b90508760a084015282810360c084015261274f81886124e7565b905082810360e084015261276381876124e7565b94151561010084015250509015156101209091015298975050505050505050565b634e487b7160e01b600052604160045260246000fd5b604051601f8201601f1916810167ffffffffffffffff811182821017156127c3576127c3612784565b604052919050565b600067ffffffffffffffff8211156127e5576127e5612784565b50601f01601f191660200190565b600082601f83011261280457600080fd5b8135612817612812826127cb565b61279a565b81815284602083860101111561282c57600080fd5b816020850160208301376000918101602001919091529392505050565b6000806000806080858703121561285f57600080fd5b843567ffffffffffffffff8082111561287757600080fd5b612883888389016127f3565b9550602087013591508082111561289957600080fd5b6128a5888389016127f3565b945060408701359150808211156128bb57600080fd5b6128c7888389016127f3565b935060608701359150808211156128dd57600080fd5b506128ea878288016127f3565b91505092959194509250565b6001600160a01b038c168152602081018b9052610160604082018190526000906129228382018d6124e7565b90508281036060840152612936818c6124e7565b9050828103608084015261294a818b6124e7565b90508860a084015282810360c084015261296481896124e7565b905082810360e084015261297881886124e7565b91505084151561010083015261299361012083018515159052565b826101408301529c9b505050505050505050505050565b634e487b7160e01b600052601160045260246000fd5b8181038181111561249f5761249f6129aa565b8082018082111561249f5761249f6129aa565b634e487b7160e01b600052603260045260246000fd5b600181811c90821680612a1057607f821691505b602082108103612a3057634e487b7160e01b600052602260045260246000fd5b50919050565b600060018201612a4857612a486129aa565b5060010190565b60008154612a5c816129fc565b808552602060018381168015612a795760018114612a9357612ac1565b60ff1985168884015283151560051b880183019550612ac1565b866000528260002060005b85811015612ab95781548a8201860152908301908401612a9e565b890184019650505b505050505092915050565b60018060a01b0384168152826020820152606060408201526000612af36060830184612a4f565b95945050505050565b60008251612b0e8184602087016124c3565b9190910192915050565b60018060a01b0385168152836020820152608060408201526000612b3f6080830185612a4f565b8281036060840152612b518185612a4f565b979650505050505050565b600060208284031215612b6e57600080fd5b5051919050565b601f821115612bbf57600081815260208120601f850160051c81016020861015612b9c5750805b601f850160051c820191505b81811015612bbb57828155600101612ba8565b5050505b505050565b815167ffffffffffffffff811115612bde57612bde612784565b612bf281612bec84546129fc565b84612b75565b602080601f831160018114612c275760008415612c0f5750858301515b600019600386901b1c1916600185901b178555612bbb565b600085815260208120601f198616915b82811015612c5657888601518255948401946001909101908401612c37565b5085821015612c745787850151600019600388901b60f8161c191681555b5050505050600190811b01905550565b60006101008a8352806020840152612c9e8184018b6124e7565b90508281036040840152612cb2818a6124e7565b90508281036060840152612cc681896124e7565b90508281036080840152612cda81886124e7565b905082810360a0840152612cee81876124e7565b60c0840195909552505060e001529695505050505050565b600060208284031215612d1857600080fd5b815167ffffffffffffffff811115612d2f57600080fd5b8201601f81018413612d4057600080fd5b8051612d4e612812826127cb565b818152856020838501011115612d6357600080fd5b612af38260208301602086016124c356fea2646970667358221220e5fc6ead28d88cdda479c2c4f7161ff79e9c35a692577a27e86b2113de5203a364736f6c63430008140033",
  "linkReferences": {},
  "deployedLinkReferences": {}
}