{
  "_format": "hh-sol-artifact-1",
  "contractName": "AquaHopeDonation",
  "sourceName": "contracts/Donation.sol",
  "abi": [
    {
      "inputs": [],
      "stateMutability": "nonpayable",
      "type": "constructor"
    },
    {
      "anonymous": false,
      "inputs": [
        {
          "indexed": true,
          "internalType": "address",
          "name": "donor",
          "type": "address"
        },
        {
          "indexed": false,
          "internalType": "uint256",
          "name": "tokenId",
          "type": "uint256"
        }
      ],
      "name": "BadgeMinted",
      "type": "event"
    },
    {
      "anonymous": false,
      "inputs": [
        {
          "indexed": true,
          "internalType": "address",
          "name": "donor",
          "type": "address"
        },
        {
          "indexed": false,
          "internalType": "uint256",
          "name": "amount",
          "type": "uint256"
        },
        {
          "indexed": false,
          "internalType": "string",
          "name": "name",
          "type": "string"
        },
        {
          "indexed": false,
          "internalType": "string",
          "name": "email",
          "type": "string"
        },
        {
          "indexed": false,
          "internalType": "string",
          "name": "message",
          "type": "string"
        },
        {
          "indexed": false,
          "internalType": "string",
          "name": "location",
          "type": "string"
        },
        {
          "indexed": false,
          "internalType": "uint256",
          "name": "timestamp",
          "type": "uint256"
        },
        {
          "indexed": false,
          "internalType": "uint256",
          "name": "tokenCode",
          "type": "uint256"
        }
      ],
      "name": "DonationReceived",
      "type": "event"
    },
    {
      "anonymous": false,
      "inputs": [
        {
          "indexed": true,
          "internalType": "address",
          "name": "donor",
          "type": "address"
        },
        {
          "indexed": false,
          "internalType": "uint256",
          "name": "amount",
          "type": "uint256"
        }
      ],
      "name": "FundsDepositedToYield",
      "type": "event"
    },
    {
      "anonymous": false,
      "inputs": [
        {
          "indexed": true,
          "internalType": "address",
          "name": "previousOwner",
          "type": "address"
        },
        {
          "indexed": true,
          "internalType": "address",
          "name": "newOwner",
          "type": "address"
        }
      ],
      "name": "OwnershipTransferred",
      "type": "event"
    },
    {
      "anonymous": false,
      "inputs": [
        {
          "indexed": true,
          "internalType": "address",
          "name": "donor",
          "type": "address"
        },
        {
          "indexed": false,
          "internalType": "uint256",
          "name": "amount",
          "type": "uint256"
        }
      ],
      "name": "TokensMinted",
      "type": "event"
    },
    {
      "inputs": [],
      "name": "aitToken",
      "outputs": [
        {
          "internalType": "address",
          "name": "",
          "type": "address"
        }
      ],
      "stateMutability": "view",
      "type": "function"
    },
    {
      "inputs": [],
      "name": "badgeNFT",
      "outputs": [
        {
          "internalType": "address",
          "name": "",
          "type": "address"
        }
      ],
      "stateMutability": "view",
      "type": "function"
    },
    {
      "inputs": [
        {
          "internalType": "string",
          "name": "_name",
          "type": "string"
        },
        {
          "internalType": "string",
          "name": "_email",
          "type": "string"
        },
        {
          "internalType": "string",
          "name": "_message",
          "type": "string"
        },
        {
          "internalType": "string",
          "name": "_location",
          "type": "string"
        }
      ],
      "name": "donate",
      "outputs": [],
      "stateMutability": "payable",
      "type": "function"
    },
    {
      "inputs": [
        {
          "internalType": "uint256",
          "name": "",
          "type": "uint256"
        }
      ],
      "name": "donations",
      "outputs": [
        {
          "internalType": "address",
          "name": "donor",
          "type": "address"
        },
        {
          "internalType": "uint256",
          "name": "amount",
          "type": "uint256"
        },
        {
          "internalType": "string",
          "name": "name",
          "type": "string"
        },
        {
          "internalType": "string",
          "name": "email",
          "type": "string"
        },
        {
          "internalType": "uint256",
          "name": "timestamp",
          "type": "uint256"
        },
        {
          "internalType": "string",
          "name": "message",
          "type": "string"
        },
        {
          "internalType": "string",
          "name": "location",
          "type": "string"
        },
        {
          "internalType": "bool",
          "name": "tokensMinted",
          "type": "bool"
        },
        {
          "internalType": "bool",
          "name": "badgeMinted",
          "type": "bool"
        },
        {
          "internalType": "uint256",
          "name": "tokenCode",
          "type": "uint256"
        }
      ],
      "stateMutability": "view",
      "type": "function"
    },
    {
      "inputs": [
        {
          "internalType": "address",
          "name": "",
          "type": "address"
        }
      ],
      "name": "donorCount",
      "outputs": [
        {
          "internalType": "uint256",
          "name": "",
          "type": "uint256"
        }
      ],
      "stateMutability": "view",
      "type": "function"
    },
    {
      "inputs": [
        {
          "internalType": "address",
          "name": "",
          "type": "address"
        }
      ],
      "name": "donorEmails",
      "outputs": [
        {
          "internalType": "string",
          "name": "",
          "type": "string"
        }
      ],
      "stateMutability": "view",
      "type": "function"
    },
    {
      "inputs": [
        {
          "internalType": "address",
          "name": "",
          "type": "address"
        }
      ],
      "name": "donorTotalAmount",
      "outputs": [
        {
          "internalType": "uint256",
          "name": "",
          "type": "uint256"
        }
      ],
      "stateMutability": "view",
      "type": "function"
    },
    {
      "inputs": [],
      "name": "emergencyWithdraw",
      "outputs": [],
      "stateMutability": "nonpayable",
      "type": "function"
    },
    {
      "inputs": [],
      "name": "getContractBalance",
      "outputs": [
        {
          "internalType": "uint256",
          "name": "",
          "type": "uint256"
        }
      ],
      "stateMutability": "view",
      "type": "function"
    },
    {
      "inputs": [
        {
          "internalType": "uint256",
          "name": "_index",
          "type": "uint256"
        }
      ],
      "name": "getDonation",
      "outputs": [
        {
          "internalType": "address",
          "name": "donor",
          "type": "address"
        },
        {
          "internalType": "uint256",
          "name": "amount",
          "type": "uint256"
        },
        {
          "internalType": "string",
          "name": "name",
          "type": "string"
        },
        {
          "internalType": "string",
          "name": "email",
          "type": "string"
        },
        {
          "internalType": "uint256",
          "name": "timestamp",
          "type": "uint256"
        },
        {
          "internalType": "string",
          "name": "message",
          "type": "string"
        },
        {
          "internalType": "string",
          "name": "location",
          "type": "string"
        },
        {
          "internalType": "bool",
          "name": "tokensMinted",
          "type": "bool"
        },
        {
          "internalType": "bool",
          "name": "badgeMinted",
          "type": "bool"
        },
        {
          "internalType": "uint256",
          "name": "tokenCode",
          "type": "uint256"
        }
      ],
      "stateMutability": "view",
      "type": "function"
    },
    {
      "inputs": [
        {
          "internalType": "uint256",
          "name": "_tokenCode",
          "type": "uint256"
        }
      ],
      "name": "getDonationByTokenCode",
      "outputs": [
        {
          "internalType": "address",
          "name": "donor",
          "type": "address"
        },
        {
          "internalType": "uint256",
          "name": "amount",
          "type": "uint256"
        },
        {
          "internalType": "string",
          "name": "name",
          "type": "string"
        },
        {
          "internalType": "string",
          "name": "email",
          "type": "string"
        },
        {
          "internalType": "uint256",
          "name": "timestamp",
          "type": "uint256"
        },
        {
          "internalType": "string",
          "name": "message",
          "type": "string"
        },
        {
          "internalType": "string",
          "name": "location",
          "type": "string"
        },
        {
          "internalType": "bool",
          "name": "tokensMinted",
          "type": "bool"
        },
        {
          "internalType": "bool",
          "name": "badgeMinted",
          "type": "bool"
        }
      ],
      "stateMutability": "view",
      "type": "function"
    },
    {
      "inputs": [],
      "name": "getDonationCount",
      "outputs": [
        {
          "internalType": "uint256",
          "name": "",
          "type": "uint256"
        }
      ],
      "stateMutability": "view",
      "type": "function"
    },
    {
      "inputs": [
        {
          "internalType": "address",
          "name": "donor",
          "type": "address"
        }
      ],
      "name": "getDonorEmail",
      "outputs": [
        {
          "internalType": "string",
          "name": "",
          "type": "string"
        }
      ],
      "stateMutability": "view",
      "type": "function"
    },
    {
      "inputs": [
        {
          "internalType": "address",
          "name": "donor",
          "type": "address"
        }
      ],
      "name": "getDonorTotalContribution",
      "outputs": [
        {
          "internalType": "uint256",
          "name": "",
          "type": "uint256"
        }
      ],
      "stateMutability": "view",
      "type": "function"
    },
    {
      "inputs": [
        {
          "internalType": "uint256",
          "name": "_count",
          "type": "uint256"
        }
      ],
      "name": "getRecentDonations",
      "outputs": [
        {
          "components": [
            {
              "internalType": "address",
              "name": "donor",
              "type": "address"
            },
            {
              "internalType": "uint256",
              "name": "amount",
              "type": "uint256"
            },
            {
              "internalType": "string",
              "name": "name",
              "type": "string"
            },
            {
              "internalType": "string",
              "name": "email",
              "type": "string"
            },
            {
              "internalType": "uint256",
              "name": "timestamp",
              "type": "uint256"
            },
            {
              "internalType": "string",
              "name": "message",
              "type": "string"
            },
            {
              "internalType": "string",
              "name": "location",
              "type": "string"
            },
            {
              "internalType": "bool",
              "name": "tokensMinted",
              "type": "bool"
            },
            {
              "internalType": "bool",
              "name": "badgeMinted",
              "type": "bool"
            },
            {
              "internalType": "uint256",
              "name": "tokenCode",
              "type": "uint256"
            }
          ],
          "internalType": "struct AquaHopeDonation.Donation[]",
          "name": "",
          "type": "tuple[]"
        }
      ],
      "stateMutability": "view",
      "type": "function"
    },
    {
      "inputs": [],
      "name": "governance",
      "outputs": [
        {
          "internalType": "address",
          "name": "",
          "type": "address"
        }
      ],
      "stateMutability": "view",
      "type": "function"
    },
    {
      "inputs": [
        {
          "internalType": "uint256",
          "name": "tokenCode",
          "type": "uint256"
        }
      ],
      "name": "isTokenCodeUsed",
      "outputs": [
        {
          "internalType": "bool",
          "name": "",
          "type": "bool"
        }
      ],
      "stateMutability": "view",
      "type": "function"
    },
    {
      "inputs": [
        {
          "internalType": "uint256",
          "name": "donationIndex",
          "type": "uint256"
        }
      ],
      "name": "mintTokensAndBadge",
      "outputs": [],
      "stateMutability": "nonpayable",
      "type": "function"
    },
    {
      "inputs": [],
      "name": "owner",
      "outputs": [
        {
          "internalType": "address",
          "name": "",
          "type": "address"
        }
      ],
      "stateMutability": "view",
      "type": "function"
    },
    {
      "inputs": [],
      "name": "renounceOwnership",
      "outputs": [],
      "stateMutability": "nonpayable",
      "type": "function"
    },
    {
      "inputs": [
        {
          "internalType": "address",
          "name": "_aitToken",
          "type": "address"
        },
        {
          "internalType": "address",
          "name": "_yieldPool",
          "type": "address"
        },
        {
          "internalType": "address",
          "name": "_governance",
          "type": "address"
        },
        {
          "internalType": "address",
          "name": "_badgeNFT",
          "type": "address"
        }
      ],
      "name": "setIntegrationContracts",
      "outputs": [],
      "stateMutability": "nonpayable",
      "type": "function"
    },
    {
      "inputs": [],
      "name": "totalDonations",
      "outputs": [
        {
          "internalType": "uint256",
          "name": "",
          "type": "uint256"
        }
      ],
      "stateMutability": "view",
      "type": "function"
    },
    {
      "inputs": [],
      "name": "totalDonors",
      "outputs": [
        {
          "internalType": "uint256",
          "name": "",
          "type": "uint256"
        }
      ],
      "stateMutability": "view",
      "type": "function"
    },
    {
      "inputs": [
        {
          "internalType": "address",
          "name": "newOwner",
          "type": "address"
        }
      ],
      "name": "transferOwnership",
      "outputs": [],
      "stateMutability": "nonpayable",
      "type": "function"
    },
    {
      "inputs": [
        {
          "internalType": "uint256",
          "name": "",
          "type": "uint256"
        }
      ],
      "name": "usedTokenCodes",
      "outputs": [
        {
          "internalType": "bool",
          "name": "",
          "type": "bool"
        }
      ],
      "stateMutability": "view",
      "type": "function"
    },
    {
      "inputs": [],
      "name": "yieldPool",
      "outputs": [
        {
          "internalType": "address",
          "name": "",
          "type": "address"
        }
      ],
      "stateMutability": "view",
      "type": "function"
    },
    {
      "stateMutability": "payable",
      "type": "receive"
    }
  ],
  "bytecode": "0x608060405234801561001057600080fd5b5061001a33610023565b60018055610073565b600080546001600160a01b038381166001600160a01b0319831681178455604051919092169283917f8be0079c531659141344cd1fd0a4f28419497f9722a3daafe3b4186f6b6457e09190a35050565b6127de806100826000396000f3fe6080604052600436106101845760003560e01c8063aba698c0116100d1578063e1859d731161008a578063f2fde38b11610064578063f2fde38b146104af578063f48fd0b5146104cf578063f4c8b3d514610505578063f8626af81461053557600080fd5b8063e1859d7314610444578063e55a62a814610464578063ef07a81f1461047957600080fd5b8063aba698c014610371578063bc8d2522146103b1578063c3e9ee19146103d1578063d589db7f14610406578063db2e21bc14610419578063de2ed8931461042e57600080fd5b80636f9fb98a1161013e5780638da5cb5b116101185780638da5cb5b146102e65780638f188dd41461030457806397646a8f14610324578063a03c57091461034457600080fd5b80636f9fb98a14610291578063715018a6146102a457806378fcbfea146102b957600080fd5b80623062ca1461019057806325c302e4146101c65780633e8b9dc6146101ea5780634348e0e91461020c5780634739eb7e146102445780635aa6e6751461027157600080fd5b3661018b57005b600080fd5b34801561019c57600080fd5b506101b06101ab366004611fce565b610555565b6040516101bd9190612037565b60405180910390f35b3480156101d257600080fd5b506101dc60035481565b6040519081526020016101bd565b3480156101f657600080fd5b5061020a610205366004611fce565b610959565b005b34801561021857600080fd5b5060075461022c906001600160a01b031681565b6040516001600160a01b0390911681526020016101bd565b34801561025057600080fd5b5061026461025f366004612165565b610cd7565b6040516101bd9190612187565b34801561027d57600080fd5b5060065461022c906001600160a01b031681565b34801561029d57600080fd5b50476101dc565b3480156102b057600080fd5b5061020a610d83565b3480156102c557600080fd5b506101dc6102d4366004612165565b60096020526000908152604090205481565b3480156102f257600080fd5b506000546001600160a01b031661022c565b34801561031057600080fd5b5060055461022c906001600160a01b031681565b34801561033057600080fd5b5061020a61033f36600461219a565b610d97565b34801561035057600080fd5b506101dc61035f366004612165565b60086020526000908152604090205481565b34801561037d57600080fd5b506103a161038c366004611fce565b6000908152600b602052604090205460ff1690565b60405190151581526020016101bd565b3480156103bd57600080fd5b506102646103cc366004612165565b610def565b3480156103dd57600080fd5b506103f16103ec366004611fce565b610e89565b6040516101bd999897969594939291906121ee565b61020a61041436600461231e565b61126f565b34801561042557600080fd5b5061020a61178b565b34801561043a57600080fd5b506101dc60025481565b34801561045057600080fd5b5060045461022c906001600160a01b031681565b34801561047057600080fd5b50600c546101dc565b34801561048557600080fd5b50610499610494366004611fce565b611811565b6040516101bd9a999897969594939291906123cb565b3480156104bb57600080fd5b5061020a6104ca366004612165565b611bc0565b3480156104db57600080fd5b506101dc6104ea366004612165565b6001600160a01b031660009081526009602052604090205490565b34801561051157600080fd5b506103a1610520366004611fce565b600b6020526000908152604090205460ff1681565b34801561054157600080fd5b50610499610550366004611fce565b611c39565b600c5460609080831115610567578092505b60008367ffffffffffffffff8111156105825761058261227b565b60405190808252806020026020018201604052801561061657816020015b61060360405180610140016040528060006001600160a01b03168152602001600081526020016060815260200160608152602001600081526020016060815260200160608152602001600015158152602001600015158152602001600081525090565b8152602001906001900390816105a05790505b50905060006106258584612474565b905060005b8581101561094f57600c61063e828461248d565b8154811061064e5761064e6124a0565b9060005260206000209060090201604051806101400160405290816000820160009054906101000a90046001600160a01b03166001600160a01b03166001600160a01b03168152602001600182015481526020016002820180546106b1906124b6565b80601f01602080910402602001604051908101604052809291908181526020018280546106dd906124b6565b801561072a5780601f106106ff5761010080835404028352916020019161072a565b820191906000526020600020905b81548152906001019060200180831161070d57829003601f168201915b50505050508152602001600382018054610743906124b6565b80601f016020809104026020016040519081016040528092919081815260200182805461076f906124b6565b80156107bc5780601f10610791576101008083540402835291602001916107bc565b820191906000526020600020905b81548152906001019060200180831161079f57829003601f168201915b50505050508152602001600482015481526020016005820180546107df906124b6565b80601f016020809104026020016040519081016040528092919081815260200182805461080b906124b6565b80156108585780601f1061082d57610100808354040283529160200191610858565b820191906000526020600020905b81548152906001019060200180831161083b57829003601f168201915b50505050508152602001600682018054610871906124b6565b80601f016020809104026020016040519081016040528092919081815260200182805461089d906124b6565b80156108ea5780601f106108bf576101008083540402835291602001916108ea565b820191906000526020600020905b8154815290600101906020018083116108cd57829003601f168201915b5050509183525050600782015460ff8082161515602084015261010090910416151560408201526008909101546060909101528351849083908110610931576109316124a0565b60200260200101819052508080610947906124f0565b91505061062a565b5090949350505050565b610961611ecb565b600c5481106109b05760405162461bcd60e51b8152602060048201526016602482015275092dcecc2d8d2c840c8dedcc2e8d2dedc40d2dcc8caf60531b60448201526064015b60405180910390fd5b6000600c82815481106109c5576109c56124a0565b60009182526020909120600990910201600781015490915060ff1615610a255760405162461bcd60e51b8152602060048201526015602482015274151bdad95b9cc8185b1c9958591e481b5a5b9d1959605a1b60448201526064016109a7565b6007810154610100900460ff1615610a765760405162461bcd60e51b815260206004820152601460248201527310985919d948185b1c9958591e481b5a5b9d195960621b60448201526064016109a7565b6004546001600160a01b031615610b9257600454815460018301546040516000936001600160a01b0390811693610ab7939116916003870190602401612586565b60408051601f198184030181529181526020820180516001600160e01b031663b7568eb960e01b17905251610aec91906125b6565b6000604051808303816000865af19150503d8060008114610b29576040519150601f19603f3d011682016040523d82523d6000602084013e610b2e565b606091505b505090508015610b905760078201805460ff191660019081179091558254908301546040519081526001600160a01b03909116907f3f2c9d57c068687834f0de942a9babb9e5acab57d516d3480a3c16ee165a42739060200160405180910390a25b505b6007546001600160a01b031615610cd3576007548154600183015460405160009384936001600160a01b0391821693610bdc939290911691600688019060058901906024016125d2565b60408051601f198184030181529181526020820180516001600160e01b03166303dbc88160e51b17905251610c1191906125b6565b6000604051808303816000865af19150503d8060008114610c4e576040519150601f19603f3d011682016040523d82523d6000602084013e610c53565b606091505b50915091508115610cd057600081806020019051810190610c749190612616565b60078501805461ff00191661010017905584546040519192506001600160a01b0316907fc5e5b314108c1f776c2302351b8278910ddb812b122b2717b1bc973146145e9a90610cc69084815260200190565b60405180910390a2505b50505b5050565b6001600160a01b0381166000908152600a60205260409020805460609190610cfe906124b6565b80601f0160208091040260200160405190810160405280929190818152602001828054610d2a906124b6565b8015610d775780601f10610d4c57610100808354040283529160200191610d77565b820191906000526020600020905b815481529060010190602001808311610d5a57829003601f168201915b50505050509050919050565b610d8b611ecb565b610d956000611f25565b565b610d9f611ecb565b600480546001600160a01b039586166001600160a01b0319918216179091556005805494861694821694909417909355600680549285169284169290921790915560078054919093169116179055565b600a6020526000908152604090208054610e08906124b6565b80601f0160208091040260200160405190810160405280929190818152602001828054610e34906124b6565b8015610e815780601f10610e5657610100808354040283529160200191610e81565b820191906000526020600020905b815481529060010190602001808311610e6457829003601f168201915b505050505081565b600080606080600060608060008060005b600c54811015611224578a600c8281548110610eb857610eb86124a0565b90600052602060002090600902016008015403611212576000600c8281548110610ee457610ee46124a0565b9060005260206000209060090201604051806101400160405290816000820160009054906101000a90046001600160a01b03166001600160a01b03166001600160a01b0316815260200160018201548152602001600282018054610f47906124b6565b80601f0160208091040260200160405190810160405280929190818152602001828054610f73906124b6565b8015610fc05780601f10610f9557610100808354040283529160200191610fc0565b820191906000526020600020905b815481529060010190602001808311610fa357829003601f168201915b50505050508152602001600382018054610fd9906124b6565b80601f0160208091040260200160405190810160405280929190818152602001828054611005906124b6565b80156110525780601f1061102757610100808354040283529160200191611052565b820191906000526020600020905b81548152906001019060200180831161103557829003601f168201915b5050505050815260200160048201548152602001600582018054611075906124b6565b80601f01602080910402602001604051908101604052809291908181526020018280546110a1906124b6565b80156110ee5780601f106110c3576101008083540402835291602001916110ee565b820191906000526020600020905b8154815290600101906020018083116110d157829003601f168201915b50505050508152602001600682018054611107906124b6565b80601f0160208091040260200160405190810160405280929190818152602001828054611133906124b6565b80156111805780601f1061115557610100808354040283529160200191611180565b820191906000526020600020905b81548152906001019060200180831161116357829003601f168201915b505050505081526020016007820160009054906101000a900460ff161515151581526020016007820160019054906101000a900460ff161515151581526020016008820154815250509050806000015181602001518260400151836060015184608001518560a001518660c001518760e001518861010001519a509a509a509a509a509a509a509a509a505050611262565b8061121c816124f0565b915050610e9a565b5060405162461bcd60e51b8152602060048201526012602482015271111bdb985d1a5bdb881b9bdd08199bdd5b9960721b60448201526064016109a7565b9193959799909294969850565b611277611f75565b600034116112d65760405162461bcd60e51b815260206004820152602660248201527f446f6e6174696f6e20616d6f756e74206d75737420626520677265617465722060448201526507468616e20360d41b60648201526084016109a7565b600084511161131e5760405162461bcd60e51b81526020600482015260146024820152734e616d652063616e6e6f7420626520656d70747960601b60448201526064016109a7565b60008351116113675760405162461bcd60e51b8152602060048201526015602482015274456d61696c2063616e6e6f7420626520656d70747960581b60448201526064016109a7565b600c54604080516bffffffffffffffffffffffff193360601b1660208083019190915242603483015244605483015260748083019490945282518083039094018452609490910182528251928101929092206000818152600b90935291205460ff161561140d5760405162461bcd60e51b81526020600482015260146024820152732a37b5b2b71031b7b2329031b7b63634b9b4b7b760611b60448201526064016109a7565b6000818152600b602090815260408083208054600160ff199091168117909155815161014081018352338152349381019384529182018981526060830189905242608084015260a0830188905260c0830187905260e0830185905261010083018590526101208301869052600c8054928301815590945281517fdf6966c971051c3d54ec59162606531493a51404a002842f56009d7e5cf4a8c7600990920291820180546001600160a01b0319166001600160a01b0390921691909117815592517fdf6966c971051c3d54ec59162606531493a51404a002842f56009d7e5cf4a8c8820155925190927fdf6966c971051c3d54ec59162606531493a51404a002842f56009d7e5cf4a8c90190611523908261267e565b5060608201516003820190611538908261267e565b506080820151600482015560a08201516005820190611557908261267e565b5060c0820151600682019061156c908261267e565b5060e08201516007820180546101008086015115150261ff00199315159390931661ffff199091161791909117905561012090910151600890910155600280543491906000906115bd90849061248d565b90915550503360009081526008602052604081205490036115ee57600380549060006115e8836124f0565b91905055505b336000908152600860205260408120805491611609836124f0565b9091555050336000908152600960205260408120805434929061162d90849061248d565b9091555050336000908152600a6020526040902061164b858261267e565b506005546001600160a01b031615611734576005546040513360248201526000916001600160a01b031690349060440160408051601f198184030181529181526020820180516001600160e01b031663919747fb60e01b179052516116b091906125b6565b60006040518083038185875af1925050503d80600081146116ed576040519150601f19603f3d011682016040523d82523d6000602084013e6116f2565b606091505b5050905080156117325760405134815233907f7256b146f0679f7da3b81a80da652e607217780dce3497466a5c2ff9da4bae3c9060200160405180910390a25b505b336001600160a01b03167fe4d4a213990fcaa6d21ef261e0bfe3e73cf5d74a803001ebbf745efec035c2db34878787874288604051611779979695949392919061273e565b60405180910390a250610cd060018055565b611793611ecb565b47806117d85760405162461bcd60e51b81526020600482015260146024820152734e6f2066756e647320746f20776974686472617760601b60448201526064016109a7565b600080546040516001600160a01b039091169183156108fc02918491818181858888f19350505050158015610cd3573d6000803e3d6000fd5b60008060608060006060806000806000600c805490508b1061186e5760405162461bcd60e51b8152602060048201526016602482015275092dcecc2d8d2c840c8dedcc2e8d2dedc40d2dcc8caf60531b60448201526064016109a7565b6000600c8c81548110611883576118836124a0565b9060005260206000209060090201604051806101400160405290816000820160009054906101000a90046001600160a01b03166001600160a01b03166001600160a01b03168152602001600182015481526020016002820180546118e6906124b6565b80601f0160208091040260200160405190810160405280929190818152602001828054611912906124b6565b801561195f5780601f106119345761010080835404028352916020019161195f565b820191906000526020600020905b81548152906001019060200180831161194257829003601f168201915b50505050508152602001600382018054611978906124b6565b80601f01602080910402602001604051908101604052809291908181526020018280546119a4906124b6565b80156119f15780601f106119c6576101008083540402835291602001916119f1565b820191906000526020600020905b8154815290600101906020018083116119d457829003601f168201915b5050505050815260200160048201548152602001600582018054611a14906124b6565b80601f0160208091040260200160405190810160405280929190818152602001828054611a40906124b6565b8015611a8d5780601f10611a6257610100808354040283529160200191611a8d565b820191906000526020600020905b815481529060010190602001808311611a7057829003601f168201915b50505050508152602001600682018054611aa6906124b6565b80601f0160208091040260200160405190810160405280929190818152602001828054611ad2906124b6565b8015611b1f5780601f10611af457610100808354040283529160200191611b1f565b820191906000526020600020905b815481529060010190602001808311611b0257829003601f168201915b505050505081526020016007820160009054906101000a900460ff161515151581526020016007820160019054906101000a900460ff161515151581526020016008820154815250509050806000015181602001518260400151836060015184608001518560a001518660c001518760e001518861010001518961012001519a509a509a509a509a509a509a509a509a509a50509193959799509193959799565b611bc8611ecb565b6001600160a01b038116611c2d5760405162461bcd60e51b815260206004820152602660248201527f4f776e61626c653a206e6577206f776e657220697320746865207a65726f206160448201526564647265737360d01b60648201526084016109a7565b611c3681611f25565b50565b600c8181548110611c4957600080fd5b60009182526020909120600990910201805460018201546002830180546001600160a01b039093169450909291611c7f906124b6565b80601f0160208091040260200160405190810160405280929190818152602001828054611cab906124b6565b8015611cf85780601f10611ccd57610100808354040283529160200191611cf8565b820191906000526020600020905b815481529060010190602001808311611cdb57829003601f168201915b505050505090806003018054611d0d906124b6565b80601f0160208091040260200160405190810160405280929190818152602001828054611d39906124b6565b8015611d865780601f10611d5b57610100808354040283529160200191611d86565b820191906000526020600020905b815481529060010190602001808311611d6957829003601f168201915b505050505090806004015490806005018054611da1906124b6565b80601f0160208091040260200160405190810160405280929190818152602001828054611dcd906124b6565b8015611e1a5780601f10611def57610100808354040283529160200191611e1a565b820191906000526020600020905b815481529060010190602001808311611dfd57829003601f168201915b505050505090806006018054611e2f906124b6565b80601f0160208091040260200160405190810160405280929190818152602001828054611e5b906124b6565b8015611ea85780601f10611e7d57610100808354040283529160200191611ea8565b820191906000526020600020905b815481529060010190602001808311611e8b57829003601f168201915b505050506007830154600890930154919260ff808216936101009092041691508a565b6000546001600160a01b03163314610d955760405162461bcd60e51b815260206004820181905260248201527f4f776e61626c653a2063616c6c6572206973206e6f7420746865206f776e657260448201526064016109a7565b600080546001600160a01b038381166001600160a01b0319831681178455604051919092169283917f8be0079c531659141344cd1fd0a4f28419497f9722a3daafe3b4186f6b6457e09190a35050565b600260015403611fc75760405162461bcd60e51b815260206004820152601f60248201527f5265656e7472616e637947756172643a207265656e7472616e742063616c6c0060448201526064016109a7565b6002600155565b600060208284031215611fe057600080fd5b5035919050565b60005b83811015612002578181015183820152602001611fea565b50506000910152565b60008151808452612023816020860160208601611fe7565b601f01601f19169290920160200192915050565b60006020808301818452808551808352604092508286019150828160051b87010184880160005b8381101561213b57888303603f19018552815180516001600160a01b03168452610140888201518986015287820151818987015261209e8287018261200b565b915050606080830151868303828801526120b8838261200b565b92505050608080830151818701525060a080830151868303828801526120de838261200b565b9250505060c080830151868303828801526120f9838261200b565b9250505060e0808301516121108288018215159052565b505061010082810151151590860152610120918201519190940152938601939086019060010161205e565b509098975050505050505050565b80356001600160a01b038116811461216057600080fd5b919050565b60006020828403121561217757600080fd5b61218082612149565b9392505050565b602081526000612180602083018461200b565b600080600080608085870312156121b057600080fd5b6121b985612149565b93506121c760208601612149565b92506121d560408601612149565b91506121e360608601612149565b905092959194509250565b6001600160a01b038a168152602081018990526101206040820181905260009061221a8382018b61200b565b9050828103606084015261222e818a61200b565b905087608084015282810360a0840152612248818861200b565b905082810360c084015261225c818761200b565b94151560e0840152505090151561010090910152979650505050505050565b634e487b7160e01b600052604160045260246000fd5b600082601f8301126122a257600080fd5b813567ffffffffffffffff808211156122bd576122bd61227b565b604051601f8301601f19908116603f011681019082821181831017156122e5576122e561227b565b816040528381528660208588010111156122fe57600080fd5b836020870160208301376000602085830101528094505050505092915050565b6000806000806080858703121561233457600080fd5b843567ffffffffffffffff8082111561234c57600080fd5b61235888838901612291565b9550602087013591508082111561236e57600080fd5b61237a88838901612291565b9450604087013591508082111561239057600080fd5b61239c88838901612291565b935060608701359150808211156123b257600080fd5b506123bf87828801612291565b91505092959194509250565b6001600160a01b038b168152602081018a9052610140604082018190526000906123f78382018c61200b565b9050828103606084015261240b818b61200b565b905088608084015282810360a0840152612425818961200b565b905082810360c0840152612439818861200b565b95151560e0840152505091151561010083015261012090910152979650505050505050565b634e487b7160e01b600052601160045260246000fd5b818103818111156124875761248761245e565b92915050565b808201808211156124875761248761245e565b634e487b7160e01b600052603260045260246000fd5b600181811c908216806124ca57607f821691505b6020821081036124ea57634e487b7160e01b600052602260045260246000fd5b50919050565b6000600182016125025761250261245e565b5060010190565b60008154612516816124b6565b808552602060018381168015612533576001811461254d5761257b565b60ff1985168884015283151560051b88018301955061257b565b866000528260002060005b858110156125735781548a8201860152908301908401612558565b890184019650505b505050505092915050565b60018060a01b03841681528260208201526060604082015260006125ad6060830184612509565b95945050505050565b600082516125c8818460208701611fe7565b9190910192915050565b60018060a01b03851681528360208201526080604082015260006125f96080830185612509565b828103606084015261260b8185612509565b979650505050505050565b60006020828403121561262857600080fd5b5051919050565b601f82111561267957600081815260208120601f850160051c810160208610156126565750805b601f850160051c820191505b8181101561267557828155600101612662565b5050505b505050565b815167ffffffffffffffff8111156126985761269861227b565b6126ac816126a684546124b6565b8461262f565b602080601f8311600181146126e157600084156126c95750858301515b600019600386901b1c1916600185901b178555612675565b600085815260208120601f198616915b82811015612710578886015182559484019460019091019084016126f1565b508582101561272e5787850151600019600388901b60f8161c191681555b5050505050600190811b01905550565b87815260e06020820152600061275760e083018961200b565b8281036040840152612769818961200b565b9050828103606084015261277d818861200b565b90508281036080840152612791818761200b565b60a0840195909552505060c001529594505050505056fea2646970667358221220661bed8dedba382015bd9de2fc5f7a2f032cf139401a51af8d32fbb798fc58ab64736f6c63430008140033",
  "linkReferences": {},
  "deployedLinkReferences": {}
}